ACSSF NH040000000001     33                                                                                                                                                       04000US33                               New Hampshire                                                                                                                                                                                                                                                                                                                                                                                                                                                                                                                                                                                                                                                                                                                                                                                                                                                                                                                                                                                                                                                                             
ACSSF NH040010000002     33                                                                                                                                U                      04001US33                               New Hampshire -- Urban                                                                                                                                                                                                                                                                                                                                                                                                                                                                                                                                                                                                                                                                                                                                                                                                                                                                                                                                                                                                                                                                    
ACSSF NH040430000003     33                                                                                                                                R                      04043US33                               New Hampshire -- Rural                                                                                                                                                                                                                                                                                                                                                                                                                                                                                                                                                                                                                                                                                                                                                                                                                                                                                                                                                                                                                                                                    
ACSSF NH040A00000004     33                                                                                                                                                       040A0US33                               New Hampshire -- In metropolitan or micropolitan statistical area                                                                                                                                                                                                                                                                                                                                                                                                                                                                                                                                                                                                                                                                                                                                                                                                                                                                                                                                                                                                                         
ACSSF NH040C00000005     33                                                              1                                                                                        040C0US33                               New Hampshire -- In metropolitan statistical area                                                                                                                                                                                                                                                                                                                                                                                                                                                                                                                                                                                                                                                                                                                                                                                                                                                                                                                                                                                                                                         
ACSSF NH040C10000006     33                                                              1                                                                  Y                     040C1US33                               New Hampshire -- In metropolitan statistical area -- in principal city                                                                                                                                                                                                                                                                                                                                                                                                                                                                                                                                                                                                                                                                                                                                                                                                                                                                                                                                                                                                                    
ACSSF NH040C20000007     33                                                              1                                                                                        040C2US33                               New Hampshire -- In metropolitan statistical area -- not in principal city                                                                                                                                                                                                                                                                                                                                                                                                                                                                                                                                                                                                                                                                                                                                                                                                                                                                                                                                                                                                                
ACSSF NH040E00000008     33                                                              2                                                                                        040E0US33                               New Hampshire -- In micropolitan statistical area                                                                                                                                                                                                                                                                                                                                                                                                                                                                                                                                                                                                                                                                                                                                                                                                                                                                                                                                                                                                                                         
ACSSF NH040E10000009     33                                                              2                                                                  Y                     040E1US33                               New Hampshire -- In micropolitan statistical area -- in principal city                                                                                                                                                                                                                                                                                                                                                                                                                                                                                                                                                                                                                                                                                                                                                                                                                                                                                                                                                                                                                    
ACSSF NH040E20000010     33                                                              2                                                                                        040E2US33                               New Hampshire -- In micropolitan statistical area -- not in principal city                                                                                                                                                                                                                                                                                                                                                                                                                                                                                                                                                                                                                                                                                                                                                                                                                                                                                                                                                                                                                
ACSSF NH040G00000011     33                                                              9                                                                                        040G0US33                               New Hampshire -- Not in metropolitan or micropolitan statistical area                                                                                                                                                                                                                                                                                                                                                                                                                                                                                                                                                                                                                                                                                                                                                                                                                                                                                                                                                                                                                     
ACSSF NH040H00000012     33                                                                                                                                                       040H0US33                               New Hampshire -- Not in metropolitan statistical area                                                                                                                                                                                                                                                                                                                                                                                                                                                                                                                                                                                                                                                                                                                                                                                                                                                                                                                                                                                                                                     
ACSSF NH050000000013     33001                                                                                                                                                    05000US33001                            Belknap County, New Hampshire                                                                                                                                                                                                                                                                                                                                                                                                                                                                                                                                                                                                                                                                                                                                                                                                                                                                                                                                                                                                                                                             
ACSSF NH050000000014     33003                                                                                                                                                    05000US33003                            Carroll County, New Hampshire                                                                                                                                                                                                                                                                                                                                                                                                                                                                                                                                                                                                                                                                                                                                                                                                                                                                                                                                                                                                                                                             
ACSSF NH050000000015     33005                                                                                                                                                    05000US33005                            Cheshire County, New Hampshire                                                                                                                                                                                                                                                                                                                                                                                                                                                                                                                                                                                                                                                                                                                                                                                                                                                                                                                                                                                                                                                            
ACSSF NH050000000016     33007                                                                                                                                                    05000US33007                            Coos County, New Hampshire                                                                                                                                                                                                                                                                                                                                                                                                                                                                                                                                                                                                                                                                                                                                                                                                                                                                                                                                                                                                                                                                
ACSSF NH050000000017     33009                                                                                                                                                    05000US33009                            Grafton County, New Hampshire                                                                                                                                                                                                                                                                                                                                                                                                                                                                                                                                                                                                                                                                                                                                                                                                                                                                                                                                                                                                                                                             
ACSSF NH050000000018     33011                                                                                                                                                    05000US33011                            Hillsborough County, New Hampshire                                                                                                                                                                                                                                                                                                                                                                                                                                                                                                                                                                                                                                                                                                                                                                                                                                                                                                                                                                                                                                                        
ACSSF NH050000000019     33013                                                                                                                                                    05000US33013                            Merrimack County, New Hampshire                                                                                                                                                                                                                                                                                                                                                                                                                                                                                                                                                                                                                                                                                                                                                                                                                                                                                                                                                                                                                                                           
ACSSF NH050000000020     33015                                                                                                                                                    05000US33015                            Rockingham County, New Hampshire                                                                                                                                                                                                                                                                                                                                                                                                                                                                                                                                                                                                                                                                                                                                                                                                                                                                                                                                                                                                                                                          
ACSSF NH050000000021     33017                                                                                                                                                    05000US33017                            Strafford County, New Hampshire                                                                                                                                                                                                                                                                                                                                                                                                                                                                                                                                                                                                                                                                                                                                                                                                                                                                                                                                                                                                                                                           
ACSSF NH050000000022     33019                                                                                                                                                    05000US33019                            Sullivan County, New Hampshire                                                                                                                                                                                                                                                                                                                                                                                                                                                                                                                                                                                                                                                                                                                                                                                                                                                                                                                                                                                                                                                            
ACSSF NH060000000023     3300101060                                                                                                                                               06000US3300101060                       Alton town, Belknap County, New Hampshire                                                                                                                                                                                                                                                                                                                                                                                                                                                                                                                                                                                                                                                                                                                                                                                                                                                                                                                                                                                                                                                 
ACSSF NH060000000024     3300103220                                                                                                                                               06000US3300103220                       Barnstead town, Belknap County, New Hampshire                                                                                                                                                                                                                                                                                                                                                                                                                                                                                                                                                                                                                                                                                                                                                                                                                                                                                                                                                                                                                                             
ACSSF NH060000000025     3300104740                                                                                                                                               06000US3300104740                       Belmont town, Belknap County, New Hampshire                                                                                                                                                                                                                                                                                                                                                                                                                                                                                                                                                                                                                                                                                                                                                                                                                                                                                                                                                                                                                                               
ACSSF NH060000000026     3300110660                                                                                                                                               06000US3300110660                       Center Harbor town, Belknap County, New Hampshire                                                                                                                                                                                                                                                                                                                                                                                                                                                                                                                                                                                                                                                                                                                                                                                                                                                                                                                                                                                                                                         
ACSSF NH060000000027     3300128740                                                                                                                                               06000US3300128740                       Gilford town, Belknap County, New Hampshire                                                                                                                                                                                                                                                                                                                                                                                                                                                                                                                                                                                                                                                                                                                                                                                                                                                                                                                                                                                                                                               
ACSSF NH060000000028     3300128980                                                                                                                                               06000US3300128980                       Gilmanton town, Belknap County, New Hampshire                                                                                                                                                                                                                                                                                                                                                                                                                                                                                                                                                                                                                                                                                                                                                                                                                                                                                                                                                                                                                                             
ACSSF NH060000000029     3300140180                                                                                                                                               06000US3300140180                       Laconia city, Belknap County, New Hampshire                                                                                                                                                                                                                                                                                                                                                                                                                                                                                                                                                                                                                                                                                                                                                                                                                                                                                                                                                                                                                                               
ACSSF NH060000000030     3300147140                                                                                                                                               06000US3300147140                       Meredith town, Belknap County, New Hampshire                                                                                                                                                                                                                                                                                                                                                                                                                                                                                                                                                                                                                                                                                                                                                                                                                                                                                                                                                                                                                                              
ACSSF NH060000000031     3300151540                                                                                                                                               06000US3300151540                       New Hampton town, Belknap County, New Hampshire                                                                                                                                                                                                                                                                                                                                                                                                                                                                                                                                                                                                                                                                                                                                                                                                                                                                                                                                                                                                                                           
ACSSF NH060000000032     3300167300                                                                                                                                               06000US3300167300                       Sanbornton town, Belknap County, New Hampshire                                                                                                                                                                                                                                                                                                                                                                                                                                                                                                                                                                                                                                                                                                                                                                                                                                                                                                                                                                                                                                            
ACSSF NH060000000033     3300177060                                                                                                                                               06000US3300177060                       Tilton town, Belknap County, New Hampshire                                                                                                                                                                                                                                                                                                                                                                                                                                                                                                                                                                                                                                                                                                                                                                                                                                                                                                                                                                                                                                                
ACSSF NH060000000034     3300300420                                                                                                                                               06000US3300300420                       Albany town, Carroll County, New Hampshire                                                                                                                                                                                                                                                                                                                                                                                                                                                                                                                                                                                                                                                                                                                                                                                                                                                                                                                                                                                                                                                
ACSSF NH060000000035     3300303700                                                                                                                                               06000US3300303700                       Bartlett town, Carroll County, New Hampshire                                                                                                                                                                                                                                                                                                                                                                                                                                                                                                                                                                                                                                                                                                                                                                                                                                                                                                                                                                                                                                              
ACSSF NH060000000036     3300307940                                                                                                                                               06000US3300307940                       Brookfield town, Carroll County, New Hampshire                                                                                                                                                                                                                                                                                                                                                                                                                                                                                                                                                                                                                                                                                                                                                                                                                                                                                                                                                                                                                                            
ACSSF NH060000000037     3300311780                                                                                                                                               06000US3300311780                       Chatham town, Carroll County, New Hampshire                                                                                                                                                                                                                                                                                                                                                                                                                                                                                                                                                                                                                                                                                                                                                                                                                                                                                                                                                                                                                                               
ACSSF NH060000000038     3300314660                                                                                                                                               06000US3300314660                       Conway town, Carroll County, New Hampshire                                                                                                                                                                                                                                                                                                                                                                                                                                                                                                                                                                                                                                                                                                                                                                                                                                                                                                                                                                                                                                                
ACSSF NH060000000039     3300323380                                                                                                                                               06000US3300323380                       Eaton town, Carroll County, New Hampshire                                                                                                                                                                                                                                                                                                                                                                                                                                                                                                                                                                                                                                                                                                                                                                                                                                                                                                                                                                                                                                                 
ACSSF NH060000000040     3300323620                                                                                                                                               06000US3300323620                       Effingham town, Carroll County, New Hampshire                                                                                                                                                                                                                                                                                                                                                                                                                                                                                                                                                                                                                                                                                                                                                                                                                                                                                                                                                                                                                                             
ACSSF NH060000000041     3300327700                                                                                                                                               06000US3300327700                       Freedom town, Carroll County, New Hampshire                                                                                                                                                                                                                                                                                                                                                                                                                                                                                                                                                                                                                                                                                                                                                                                                                                                                                                                                                                                                                                               
ACSSF NH060000000042     3300332500                                                                                                                                               06000US3300332500                       Hale's location, Carroll County, New Hampshire                                                                                                                                                                                                                                                                                                                                                                                                                                                                                                                                                                                                                                                                                                                                                                                                                                                                                                                                                                                                                                            
ACSSF NH060000000043     3300334500                                                                                                                                               06000US3300334500                       Hart's Location town, Carroll County, New Hampshire                                                                                                                                                                                                                                                                                                                                                                                                                                                                                                                                                                                                                                                                                                                                                                                                                                                                                                                                                                                                                                       
ACSSF NH060000000044     3300338260                                                                                                                                               06000US3300338260                       Jackson town, Carroll County, New Hampshire                                                                                                                                                                                                                                                                                                                                                                                                                                                                                                                                                                                                                                                                                                                                                                                                                                                                                                                                                                                                                                               
ACSSF NH060000000045     3300345060                                                                                                                                               06000US3300345060                       Madison town, Carroll County, New Hampshire                                                                                                                                                                                                                                                                                                                                                                                                                                                                                                                                                                                                                                                                                                                                                                                                                                                                                                                                                                                                                                               
ACSSF NH060000000046     3300349380                                                                                                                                               06000US3300349380                       Moultonborough town, Carroll County, New Hampshire                                                                                                                                                                                                                                                                                                                                                                                                                                                                                                                                                                                                                                                                                                                                                                                                                                                                                                                                                                                                                                        
ACSSF NH060000000047     3300358740                                                                                                                                               06000US3300358740                       Ossipee town, Carroll County, New Hampshire                                                                                                                                                                                                                                                                                                                                                                                                                                                                                                                                                                                                                                                                                                                                                                                                                                                                                                                                                                                                                                               
ACSSF NH060000000048     3300367780                                                                                                                                               06000US3300367780                       Sandwich town, Carroll County, New Hampshire                                                                                                                                                                                                                                                                                                                                                                                                                                                                                                                                                                                                                                                                                                                                                                                                                                                                                                                                                                                                                                              
ACSSF NH060000000049     3300376100                                                                                                                                               06000US3300376100                       Tamworth town, Carroll County, New Hampshire                                                                                                                                                                                                                                                                                                                                                                                                                                                                                                                                                                                                                                                                                                                                                                                                                                                                                                                                                                                                                                              
ACSSF NH060000000050     3300377620                                                                                                                                               06000US3300377620                       Tuftonboro town, Carroll County, New Hampshire                                                                                                                                                                                                                                                                                                                                                                                                                                                                                                                                                                                                                                                                                                                                                                                                                                                                                                                                                                                                                                            
ACSSF NH060000000051     3300378180                                                                                                                                               06000US3300378180                       Wakefield town, Carroll County, New Hampshire                                                                                                                                                                                                                                                                                                                                                                                                                                                                                                                                                                                                                                                                                                                                                                                                                                                                                                                                                                                                                                             
ACSSF NH060000000052     3300386420                                                                                                                                               06000US3300386420                       Wolfeboro town, Carroll County, New Hampshire                                                                                                                                                                                                                                                                                                                                                                                                                                                                                                                                                                                                                                                                                                                                                                                                                                                                                                                                                                                                                                             
ACSSF NH060000000053     3300500820                                                                                                                                               06000US3300500820                       Alstead town, Cheshire County, New Hampshire                                                                                                                                                                                                                                                                                                                                                                                                                                                                                                                                                                                                                                                                                                                                                                                                                                                                                                                                                                                                                                              
ACSSF NH060000000054     3300512260                                                                                                                                               06000US3300512260                       Chesterfield town, Cheshire County, New Hampshire                                                                                                                                                                                                                                                                                                                                                                                                                                                                                                                                                                                                                                                                                                                                                                                                                                                                                                                                                                                                                                         
ACSSF NH060000000055     3300519140                                                                                                                                               06000US3300519140                       Dublin town, Cheshire County, New Hampshire                                                                                                                                                                                                                                                                                                                                                                                                                                                                                                                                                                                                                                                                                                                                                                                                                                                                                                                                                                                                                                               
ACSSF NH060000000056     3300526500                                                                                                                                               06000US3300526500                       Fitzwilliam town, Cheshire County, New Hampshire                                                                                                                                                                                                                                                                                                                                                                                                                                                                                                                                                                                                                                                                                                                                                                                                                                                                                                                                                                                                                                          
ACSSF NH060000000057     3300529220                                                                                                                                               06000US3300529220                       Gilsum town, Cheshire County, New Hampshire                                                                                                                                                                                                                                                                                                                                                                                                                                                                                                                                                                                                                                                                                                                                                                                                                                                                                                                                                                                                                                               
ACSSF NH060000000058     3300534420                                                                                                                                               06000US3300534420                       Harrisville town, Cheshire County, New Hampshire                                                                                                                                                                                                                                                                                                                                                                                                                                                                                                                                                                                                                                                                                                                                                                                                                                                                                                                                                                                                                                          
ACSSF NH060000000059     3300536660                                                                                                                                               06000US3300536660                       Hinsdale town, Cheshire County, New Hampshire                                                                                                                                                                                                                                                                                                                                                                                                                                                                                                                                                                                                                                                                                                                                                                                                                                                                                                                                                                                                                                             
ACSSF NH060000000060     3300538500                                                                                                                                               06000US3300538500                       Jaffrey town, Cheshire County, New Hampshire                                                                                                                                                                                                                                                                                                                                                                                                                                                                                                                                                                                                                                                                                                                                                                                                                                                                                                                                                                                                                                              
ACSSF NH060000000061     3300539300                                                                                                                                               06000US3300539300                       Keene city, Cheshire County, New Hampshire                                                                                                                                                                                                                                                                                                                                                                                                                                                                                                                                                                                                                                                                                                                                                                                                                                                                                                                                                                                                                                                
ACSSF NH060000000062     3300545460                                                                                                                                               06000US3300545460                       Marlborough town, Cheshire County, New Hampshire                                                                                                                                                                                                                                                                                                                                                                                                                                                                                                                                                                                                                                                                                                                                                                                                                                                                                                                                                                                                                                          
ACSSF NH060000000063     3300545700                                                                                                                                               06000US3300545700                       Marlow town, Cheshire County, New Hampshire                                                                                                                                                                                                                                                                                                                                                                                                                                                                                                                                                                                                                                                                                                                                                                                                                                                                                                                                                                                                                                               
ACSSF NH060000000064     3300550580                                                                                                                                               06000US3300550580                       Nelson town, Cheshire County, New Hampshire                                                                                                                                                                                                                                                                                                                                                                                                                                                                                                                                                                                                                                                                                                                                                                                                                                                                                                                                                                                                                                               
ACSSF NH060000000065     3300564420                                                                                                                                               06000US3300564420                       Richmond town, Cheshire County, New Hampshire                                                                                                                                                                                                                                                                                                                                                                                                                                                                                                                                                                                                                                                                                                                                                                                                                                                                                                                                                                                                                                             
ACSSF NH060000000066     3300564580                                                                                                                                               06000US3300564580                       Rindge town, Cheshire County, New Hampshire                                                                                                                                                                                                                                                                                                                                                                                                                                                                                                                                                                                                                                                                                                                                                                                                                                                                                                                                                                                                                                               
ACSSF NH060000000067     3300565700                                                                                                                                               06000US3300565700                       Roxbury town, Cheshire County, New Hampshire                                                                                                                                                                                                                                                                                                                                                                                                                                                                                                                                                                                                                                                                                                                                                                                                                                                                                                                                                                                                                                              
ACSSF NH060000000068     3300573700                                                                                                                                               06000US3300573700                       Stoddard town, Cheshire County, New Hampshire                                                                                                                                                                                                                                                                                                                                                                                                                                                                                                                                                                                                                                                                                                                                                                                                                                                                                                                                                                                                                                             
ACSSF NH060000000069     3300574900                                                                                                                                               06000US3300574900                       Sullivan town, Cheshire County, New Hampshire                                                                                                                                                                                                                                                                                                                                                                                                                                                                                                                                                                                                                                                                                                                                                                                                                                                                                                                                                                                                                                             
ACSSF NH060000000070     3300575300                                                                                                                                               06000US3300575300                       Surry town, Cheshire County, New Hampshire                                                                                                                                                                                                                                                                                                                                                                                                                                                                                                                                                                                                                                                                                                                                                                                                                                                                                                                                                                                                                                                
ACSSF NH060000000071     3300575700                                                                                                                                               06000US3300575700                       Swanzey town, Cheshire County, New Hampshire                                                                                                                                                                                                                                                                                                                                                                                                                                                                                                                                                                                                                                                                                                                                                                                                                                                                                                                                                                                                                                              
ACSSF NH060000000072     3300577380                                                                                                                                               06000US3300577380                       Troy town, Cheshire County, New Hampshire                                                                                                                                                                                                                                                                                                                                                                                                                                                                                                                                                                                                                                                                                                                                                                                                                                                                                                                                                                                                                                                 
ACSSF NH060000000073     3300578420                                                                                                                                               06000US3300578420                       Walpole town, Cheshire County, New Hampshire                                                                                                                                                                                                                                                                                                                                                                                                                                                                                                                                                                                                                                                                                                                                                                                                                                                                                                                                                                                                                                              
ACSSF NH060000000074     3300582660                                                                                                                                               06000US3300582660                       Westmoreland town, Cheshire County, New Hampshire                                                                                                                                                                                                                                                                                                                                                                                                                                                                                                                                                                                                                                                                                                                                                                                                                                                                                                                                                                                                                                         
ACSSF NH060000000075     3300585540                                                                                                                                               06000US3300585540                       Winchester town, Cheshire County, New Hampshire                                                                                                                                                                                                                                                                                                                                                                                                                                                                                                                                                                                                                                                                                                                                                                                                                                                                                                                                                                                                                                           
ACSSF NH060000000076     3300702420                                                                                                                                               06000US3300702420                       Atkinson and Gilmanton Academy grant, Coos County, New Hampshire                                                                                                                                                                                                                                                                                                                                                                                                                                                                                                                                                                                                                                                                                                                                                                                                                                                                                                                                                                                                                          
ACSSF NH060000000077     3300704100                                                                                                                                               06000US3300704100                       Beans grant, Coos County, New Hampshire                                                                                                                                                                                                                                                                                                                                                                                                                                                                                                                                                                                                                                                                                                                                                                                                                                                                                                                                                                                                                                                   
ACSSF NH060000000078     3300704260                                                                                                                                               06000US3300704260                       Beans purchase, Coos County, New Hampshire                                                                                                                                                                                                                                                                                                                                                                                                                                                                                                                                                                                                                                                                                                                                                                                                                                                                                                                                                                                                                                                
