ACSSF HI040000000001     15                                                                                                                                                       04000US15                               Hawaii                                                                                                                                                                                                                                                                                                                                                                                                                                                                                                                                                                                                                                                                                                                                                                                                                                                                                                                                                                                                                                                                                    
ACSSF HI040010000002     15                                                                                                                                U                      04001US15                               Hawaii -- Urban                                                                                                                                                                                                                                                                                                                                                                                                                                                                                                                                                                                                                                                                                                                                                                                                                                                                                                                                                                                                                                                                           
ACSSF HI040430000003     15                                                                                                                                R                      04043US15                               Hawaii -- Rural                                                                                                                                                                                                                                                                                                                                                                                                                                                                                                                                                                                                                                                                                                                                                                                                                                                                                                                                                                                                                                                                           
ACSSF HI040A00000004     15                                                                                                                                                       040A0US15                               Hawaii -- In metropolitan or micropolitan statistical area                                                                                                                                                                                                                                                                                                                                                                                                                                                                                                                                                                                                                                                                                                                                                                                                                                                                                                                                                                                                                                
ACSSF HI040C00000005     15                                                              1                                                                                        040C0US15                               Hawaii -- In metropolitan statistical area                                                                                                                                                                                                                                                                                                                                                                                                                                                                                                                                                                                                                                                                                                                                                                                                                                                                                                                                                                                                                                                
ACSSF HI040C10000006     15                                                              1                                                                  Y                     040C1US15                               Hawaii -- In metropolitan statistical area -- in principal city                                                                                                                                                                                                                                                                                                                                                                                                                                                                                                                                                                                                                                                                                                                                                                                                                                                                                                                                                                                                                           
ACSSF HI040C20000007     15                                                              1                                                                                        040C2US15                               Hawaii -- In metropolitan statistical area -- not in principal city                                                                                                                                                                                                                                                                                                                                                                                                                                                                                                                                                                                                                                                                                                                                                                                                                                                                                                                                                                                                                       
ACSSF HI040E00000008     15                                                              2                                                                                        040E0US15                               Hawaii -- In micropolitan statistical area                                                                                                                                                                                                                                                                                                                                                                                                                                                                                                                                                                                                                                                                                                                                                                                                                                                                                                                                                                                                                                                
ACSSF HI040E10000009     15                                                              2                                                                  Y                     040E1US15                               Hawaii -- In micropolitan statistical area -- in principal city                                                                                                                                                                                                                                                                                                                                                                                                                                                                                                                                                                                                                                                                                                                                                                                                                                                                                                                                                                                                                           
ACSSF HI040E20000010     15                                                              2                                                                                        040E2US15                               Hawaii -- In micropolitan statistical area -- not in principal city                                                                                                                                                                                                                                                                                                                                                                                                                                                                                                                                                                                                                                                                                                                                                                                                                                                                                                                                                                                                                       
ACSSF HI040H00000011     15                                                                                                                                                       040H0US15                               Hawaii -- Not in metropolitan statistical area                                                                                                                                                                                                                                                                                                                                                                                                                                                                                                                                                                                                                                                                                                                                                                                                                                                                                                                                                                                                                                            
ACSSF HI050000000012     15001                                                                                                                                                    05000US15001                            Hawaii County, Hawaii                                                                                                                                                                                                                                                                                                                                                                                                                                                                                                                                                                                                                                                                                                                                                                                                                                                                                                                                                                                                                                                                     
ACSSF HI050000000013     15003                                                                                                                                                    05000US15003                            Honolulu County, Hawaii                                                                                                                                                                                                                                                                                                                                                                                                                                                                                                                                                                                                                                                                                                                                                                                                                                                                                                                                                                                                                                                                   
ACSSF HI050000000014     15005                                                                                                                                                    05000US15005                            Kalawao County, Hawaii                                                                                                                                                                                                                                                                                                                                                                                                                                                                                                                                                                                                                                                                                                                                                                                                                                                                                                                                                                                                                                                                    
ACSSF HI050000000015     15007                                                                                                                                                    05000US15007                            Kauai County, Hawaii                                                                                                                                                                                                                                                                                                                                                                                                                                                                                                                                                                                                                                                                                                                                                                                                                                                                                                                                                                                                                                                                      
ACSSF HI050000000016     15009                                                                                                                                                    05000US15009                            Maui County, Hawaii                                                                                                                                                                                                                                                                                                                                                                                                                                                                                                                                                                                                                                                                                                                                                                                                                                                                                                                                                                                                                                                                       
ACSSF HI060000000017     1500190630                                                                                                                                               06000US1500190630                       Hilo CCD, Hawaii County, Hawaii                                                                                                                                                                                                                                                                                                                                                                                                                                                                                                                                                                                                                                                                                                                                                                                                                                                                                                                                                                                                                                                           
ACSSF HI060000000018     1500190720                                                                                                                                               06000US1500190720                       Honokaa-Kukuihaele CCD, Hawaii County, Hawaii                                                                                                                                                                                                                                                                                                                                                                                                                                                                                                                                                                                                                                                                                                                                                                                                                                                                                                                                                                                                                                             
ACSSF HI060000000019     1500191170                                                                                                                                               06000US1500191170                       Kau CCD, Hawaii County, Hawaii                                                                                                                                                                                                                                                                                                                                                                                                                                                                                                                                                                                                                                                                                                                                                                                                                                                                                                                                                                                                                                                            
ACSSF HI060000000020     1500191350                                                                                                                                               06000US1500191350                       Keaau-Mountain View CCD, Hawaii County, Hawaii                                                                                                                                                                                                                                                                                                                                                                                                                                                                                                                                                                                                                                                                                                                                                                                                                                                                                                                                                                                                                                            
ACSSF HI060000000021     1500192430                                                                                                                                               06000US1500192430                       North Hilo CCD, Hawaii County, Hawaii                                                                                                                                                                                                                                                                                                                                                                                                                                                                                                                                                                                                                                                                                                                                                                                                                                                                                                                                                                                                                                                     
ACSSF HI060000000022     1500192520                                                                                                                                               06000US1500192520                       North Kohala CCD, Hawaii County, Hawaii                                                                                                                                                                                                                                                                                                                                                                                                                                                                                                                                                                                                                                                                                                                                                                                                                                                                                                                                                                                                                                                   
ACSSF HI060000000023     1500192610                                                                                                                                               06000US1500192610                       North Kona CCD, Hawaii County, Hawaii                                                                                                                                                                                                                                                                                                                                                                                                                                                                                                                                                                                                                                                                                                                                                                                                                                                                                                                                                                                                                                                     
ACSSF HI060000000024     1500192700                                                                                                                                               06000US1500192700                       Paauhau-Paauilo CCD, Hawaii County, Hawaii                                                                                                                                                                                                                                                                                                                                                                                                                                                                                                                                                                                                                                                                                                                                                                                                                                                                                                                                                                                                                                                
ACSSF HI060000000025     1500192790                                                                                                                                               06000US1500192790                       Pahoa-Kalapana CCD, Hawaii County, Hawaii                                                                                                                                                                                                                                                                                                                                                                                                                                                                                                                                                                                                                                                                                                                                                                                                                                                                                                                                                                                                                                                 
ACSSF HI060000000026     1500192880                                                                                                                                               06000US1500192880                       Papaikou-Wailea CCD, Hawaii County, Hawaii                                                                                                                                                                                                                                                                                                                                                                                                                                                                                                                                                                                                                                                                                                                                                                                                                                                                                                                                                                                                                                                
ACSSF HI060000000027     1500193150                                                                                                                                               06000US1500193150                       South Kohala CCD, Hawaii County, Hawaii                                                                                                                                                                                                                                                                                                                                                                                                                                                                                                                                                                                                                                                                                                                                                                                                                                                                                                                                                                                                                                                   
ACSSF HI060000000028     1500193240                                                                                                                                               06000US1500193240                       South Kona CCD, Hawaii County, Hawaii                                                                                                                                                                                                                                                                                                                                                                                                                                                                                                                                                                                                                                                                                                                                                                                                                                                                                                                                                                                                                                                     
ACSSF HI060000000029     1500390270                                                                                                                                               06000US1500390270                       Ewa CCD, Honolulu County, Hawaii                                                                                                                                                                                                                                                                                                                                                                                                                                                                                                                                                                                                                                                                                                                                                                                                                                                                                                                                                                                                                                                          
ACSSF HI060000000030     1500390810                                                                                                                                               06000US1500390810                       Honolulu CCD, Honolulu County, Hawaii                                                                                                                                                                                                                                                                                                                                                                                                                                                                                                                                                                                                                                                                                                                                                                                                                                                                                                                                                                                                                                                     
ACSSF HI060000000031     1500391710                                                                                                                                               06000US1500391710                       Koolauloa CCD, Honolulu County, Hawaii                                                                                                                                                                                                                                                                                                                                                                                                                                                                                                                                                                                                                                                                                                                                                                                                                                                                                                                                                                                                                                                    
ACSSF HI060000000032     1500391800                                                                                                                                               06000US1500391800                       Koolaupoko CCD, Honolulu County, Hawaii                                                                                                                                                                                                                                                                                                                                                                                                                                                                                                                                                                                                                                                                                                                                                                                                                                                                                                                                                                                                                                                   
ACSSF HI060000000033     1500393420                                                                                                                                               06000US1500393420                       Wahiawa CCD, Honolulu County, Hawaii                                                                                                                                                                                                                                                                                                                                                                                                                                                                                                                                                                                                                                                                                                                                                                                                                                                                                                                                                                                                                                                      
ACSSF HI060000000034     1500393510                                                                                                                                               06000US1500393510                       Waialua CCD, Honolulu County, Hawaii                                                                                                                                                                                                                                                                                                                                                                                                                                                                                                                                                                                                                                                                                                                                                                                                                                                                                                                                                                                                                                                      
ACSSF HI060000000035     1500393600                                                                                                                                               06000US1500393600                       Waianae CCD, Honolulu County, Hawaii                                                                                                                                                                                                                                                                                                                                                                                                                                                                                                                                                                                                                                                                                                                                                                                                                                                                                                                                                                                                                                                      
ACSSF HI060000000036     1500590990                                                                                                                                               06000US1500590990                       Kalawao CCD, Kalawao County, Hawaii                                                                                                                                                                                                                                                                                                                                                                                                                                                                                                                                                                                                                                                                                                                                                                                                                                                                                                                                                                                                                                                       
ACSSF HI060000000037     1500790180                                                                                                                                               06000US1500790180                       Eleele-Kalaheo CCD, Kauai County, Hawaii                                                                                                                                                                                                                                                                                                                                                                                                                                                                                                                                                                                                                                                                                                                                                                                                                                                                                                                                                                                                                                                  
ACSSF HI060000000038     1500790540                                                                                                                                               06000US1500790540                       Hanalei CCD, Kauai County, Hawaii                                                                                                                                                                                                                                                                                                                                                                                                                                                                                                                                                                                                                                                                                                                                                                                                                                                                                                                                                                                                                                                         
ACSSF HI060000000039     1500791080                                                                                                                                               06000US1500791080                       Kapaa CCD, Kauai County, Hawaii                                                                                                                                                                                                                                                                                                                                                                                                                                                                                                                                                                                                                                                                                                                                                                                                                                                                                                                                                                                                                                                           
ACSSF HI060000000040     1500791260                                                                                                                                               06000US1500791260                       Kaumakani-Hanapepe CCD, Kauai County, Hawaii                                                                                                                                                                                                                                                                                                                                                                                                                                                                                                                                                                                                                                                                                                                                                                                                                                                                                                                                                                                                                                              
ACSSF HI060000000041     1500791440                                                                                                                                               06000US1500791440                       Kekaha-Waimea CCD, Kauai County, Hawaii                                                                                                                                                                                                                                                                                                                                                                                                                                                                                                                                                                                                                                                                                                                                                                                                                                                                                                                                                                                                                                                   
ACSSF HI060000000042     1500791620                                                                                                                                               06000US1500791620                       Koloa-Poipu CCD, Kauai County, Hawaii                                                                                                                                                                                                                                                                                                                                                                                                                                                                                                                                                                                                                                                                                                                                                                                                                                                                                                                                                                                                                                                     
ACSSF HI060000000043     1500792160                                                                                                                                               06000US1500792160                       Lihue CCD, Kauai County, Hawaii                                                                                                                                                                                                                                                                                                                                                                                                                                                                                                                                                                                                                                                                                                                                                                                                                                                                                                                                                                                                                                                           
ACSSF HI060000000044     1500792340                                                                                                                                               06000US1500792340                       Niihau CCD, Kauai County, Hawaii                                                                                                                                                                                                                                                                                                                                                                                                                                                                                                                                                                                                                                                                                                                                                                                                                                                                                                                                                                                                                                                          
ACSSF HI060000000045     1500792970                                                                                                                                               06000US1500792970                       Puhi-Hanamaulu CCD, Kauai County, Hawaii                                                                                                                                                                                                                                                                                                                                                                                                                                                                                                                                                                                                                                                                                                                                                                                                                                                                                                                                                                                                                                                  
ACSSF HI060000000046     1500793780                                                                                                                                               06000US1500793780                       Wailua-Anahola CCD, Kauai County, Hawaii                                                                                                                                                                                                                                                                                                                                                                                                                                                                                                                                                                                                                                                                                                                                                                                                                                                                                                                                                                                                                                                  
ACSSF HI060000000047     1500990090                                                                                                                                               06000US1500990090                       East Molokai CCD, Maui County, Hawaii                                                                                                                                                                                                                                                                                                                                                                                                                                                                                                                                                                                                                                                                                                                                                                                                                                                                                                                                                                                                                                                     
ACSSF HI060000000048     1500990360                                                                                                                                               06000US1500990360                       Haiku-Pauwela CCD, Maui County, Hawaii                                                                                                                                                                                                                                                                                                                                                                                                                                                                                                                                                                                                                                                                                                                                                                                                                                                                                                                                                                                                                                                    
ACSSF HI060000000049     1500990450                                                                                                                                               06000US1500990450                       Hana CCD, Maui County, Hawaii                                                                                                                                                                                                                                                                                                                                                                                                                                                                                                                                                                                                                                                                                                                                                                                                                                                                                                                                                                                                                                                             
ACSSF HI060000000050     1500990900                                                                                                                                               06000US1500990900                       Kahului CCD, Maui County, Hawaii                                                                                                                                                                                                                                                                                                                                                                                                                                                                                                                                                                                                                                                                                                                                                                                                                                                                                                                                                                                                                                                          
ACSSF HI060000000051     1500991530                                                                                                                                               06000US1500991530                       Kihei CCD, Maui County, Hawaii                                                                                                                                                                                                                                                                                                                                                                                                                                                                                                                                                                                                                                                                                                                                                                                                                                                                                                                                                                                                                                                            
ACSSF HI060000000052     1500991890                                                                                                                                               06000US1500991890                       Kula CCD, Maui County, Hawaii                                                                                                                                                                                                                                                                                                                                                                                                                                                                                                                                                                                                                                                                                                                                                                                                                                                                                                                                                                                                                                                             
ACSSF HI060000000053     1500991980                                                                                                                                               06000US1500991980                       Lahaina CCD, Maui County, Hawaii                                                                                                                                                                                                                                                                                                                                                                                                                                                                                                                                                                                                                                                                                                                                                                                                                                                                                                                                                                                                                                                          
ACSSF HI060000000054     1500992070                                                                                                                                               06000US1500992070                       Lanai CCD, Maui County, Hawaii                                                                                                                                                                                                                                                                                                                                                                                                                                                                                                                                                                                                                                                                                                                                                                                                                                                                                                                                                                                                                                                            
ACSSF HI060000000055     1500992250                                                                                                                                               06000US1500992250                       Makawao-Paia CCD, Maui County, Hawaii                                                                                                                                                                                                                                                                                                                                                                                                                                                                                                                                                                                                                                                                                                                                                                                                                                                                                                                                                                                                                                                     
ACSSF HI060000000056     1500993060                                                                                                                                               06000US1500993060                       Puunene CCD, Maui County, Hawaii                                                                                                                                                                                                                                                                                                                                                                                                                                                                                                                                                                                                                                                                                                                                                                                                                                                                                                                                                                                                                                                          
ACSSF HI060000000057     1500993330                                                                                                                                               06000US1500993330                       Spreckelsville CCD, Maui County, Hawaii                                                                                                                                                                                                                                                                                                                                                                                                                                                                                                                                                                                                                                                                                                                                                                                                                                                                                                                                                                                                                                                   
ACSSF HI060000000058     1500993690                                                                                                                                               06000US1500993690                       Waihee-Waikapu CCD, Maui County, Hawaii                                                                                                                                                                                                                                                                                                                                                                                                                                                                                                                                                                                                                                                                                                                                                                                                                                                                                                                                                                                                                                                   
ACSSF HI060000000059     1500993870                                                                                                                                               06000US1500993870                       Wailuku CCD, Maui County, Hawaii                                                                                                                                                                                                                                                                                                                                                                                                                                                                                                                                                                                                                                                                                                                                                                                                                                                                                                                                                                                                                                                          
ACSSF HI060000000060     1500993960                                                                                                                                               06000US1500993960                       West Molokai CCD, Maui County, Hawaii                                                                                                                                                                                                                                                                                                                                                                                                                                                                                                                                                                                                                                                                                                                                                                                                                                                                                                                                                                                                                                                     
ACSSF HI070000000061     150019063014650                                                                                                                                          07000US150019063014650                  Hilo CDP, Hilo CCD, Hawaii County, Hawaii                                                                                                                                                                                                                                                                                                                                                                                                                                                                                                                                                                                                                                                                                                                                                                                                                                                                                                                                                                                                                                                 
ACSSF HI070000000062     150019063078950                                                                                                                                          07000US150019063078950                  Wainaku CDP, Hilo CCD, Hawaii County, Hawaii                                                                                                                                                                                                                                                                                                                                                                                                                                                                                                                                                                                                                                                                                                                                                                                                                                                                                                                                                                                                                                              
ACSSF HI070000000063     150019063099999                                                                                                                                          07000US150019063099999                  Remainder of Hilo CCD, Hilo CCD, Hawaii County, Hawaii                                                                                                                                                                                                                                                                                                                                                                                                                                                                                                                                                                                                                                                                                                                                                                                                                                                                                                                                                                                                                                    
ACSSF HI070000000064     150019072016450                                                                                                                                          07000US150019072016450                  Honokaa CDP (part), Honokaa-Kukuihaele CCD, Hawaii County, Hawaii                                                                                                                                                                                                                                                                                                                                                                                                                                                                                                                                                                                                                                                                                                                                                                                                                                                                                                                                                                                                                         
ACSSF HI070000000065     150019072041000                                                                                                                                          07000US150019072041000                  Kukuihaele CDP, Honokaa-Kukuihaele CCD, Hawaii County, Hawaii                                                                                                                                                                                                                                                                                                                                                                                                                                                                                                                                                                                                                                                                                                                                                                                                                                                                                                                                                                                                                             
ACSSF HI070000000066     150019072099999                                                                                                                                          07000US150019072099999                  Remainder of Honokaa-Kukuihaele CCD, Honokaa-Kukuihaele CCD, Hawaii County, Hawaii                                                                                                                                                                                                                                                                                                                                                                                                                                                                                                                                                                                                                                                                                                                                                                                                                                                                                                                                                                                                        
ACSSF HI070000000067     150019117005900                                                                                                                                          07000US150019117005900                  Discovery Harbour CDP, Kau CCD, Hawaii County, Hawaii                                                                                                                                                                                                                                                                                                                                                                                                                                                                                                                                                                                                                                                                                                                                                                                                                                                                                                                                                                                                                                     
ACSSF HI070000000068     150019117012530                                                                                                                                          07000US150019117012530                  Hawaiian Ocean View CDP, Kau CCD, Hawaii County, Hawaii                                                                                                                                                                                                                                                                                                                                                                                                                                                                                                                                                                                                                                                                                                                                                                                                                                                                                                                                                                                                                                   
ACSSF HI070000000069     150019117053600                                                                                                                                          07000US150019117053600                  Naalehu CDP, Kau CCD, Hawaii County, Hawaii                                                                                                                                                                                                                                                                                                                                                                                                                                                                                                                                                                                                                                                                                                                                                                                                                                                                                                                                                                                                                                               
ACSSF HI070000000070     150019117059750                                                                                                                                          07000US150019117059750                  Pahala CDP, Kau CCD, Hawaii County, Hawaii                                                                                                                                                                                                                                                                                                                                                                                                                                                                                                                                                                                                                                                                                                                                                                                                                                                                                                                                                                                                                                                
ACSSF HI070000000071     150019117072350                                                                                                                                          07000US150019117072350                  Volcano CDP (part), Kau CCD, Hawaii County, Hawaii                                                                                                                                                                                                                                                                                                                                                                                                                                                                                                                                                                                                                                                                                                                                                                                                                                                                                                                                                                                                                                        
ACSSF HI070000000072     150019117079550                                                                                                                                          07000US150019117079550                  Waiohinu CDP, Kau CCD, Hawaii County, Hawaii                                                                                                                                                                                                                                                                                                                                                                                                                                                                                                                                                                                                                                                                                                                                                                                                                                                                                                                                                                                                                                              
ACSSF HI070000000073     150019117099999                                                                                                                                          07000US150019117099999                  Remainder of Kau CCD, Kau CCD, Hawaii County, Hawaii                                                                                                                                                                                                                                                                                                                                                                                                                                                                                                                                                                                                                                                                                                                                                                                                                                                                                                                                                                                                                                      
ACSSF HI070000000074     150019135001085                                                                                                                                          07000US150019135001085                  Ainaloa CDP, Keaau-Mountain View CCD, Hawaii County, Hawaii                                                                                                                                                                                                                                                                                                                                                                                                                                                                                                                                                                                                                                                                                                                                                                                                                                                                                                                                                                                                                               
ACSSF HI070000000075     150019135006325                                                                                                                                          07000US150019135006325                  Eden Roc CDP, Keaau-Mountain View CCD, Hawaii County, Hawaii                                                                                                                                                                                                                                                                                                                                                                                                                                                                                                                                                                                                                                                                                                                                                                                                                                                                                                                                                                                                                              
ACSSF HI070000000076     150019135007542                                                                                                                                          07000US150019135007542                  Fern Acres CDP, Keaau-Mountain View CCD, Hawaii County, Hawaii                                                                                                                                                                                                                                                                                                                                                                                                                                                                                                                                                                                                                                                                                                                                                                                                                                                                                                                                                                                                                            
ACSSF HI070000000077     150019135007675                                                                                                                                          07000US150019135007675                  Fern Forest CDP, Keaau-Mountain View CCD, Hawaii County, Hawaii                                                                                                                                                                                                                                                                                                                                                                                                                                                                                                                                                                                                                                                                                                                                                                                                                                                                                                                                                                                                                           
ACSSF HI070000000078     150019135012450                                                                                                                                          07000US150019135012450                  Hawaiian Acres CDP, Keaau-Mountain View CCD, Hawaii County, Hawaii                                                                                                                                                                                                                                                                                                                                                                                                                                                                                                                                                                                                                                                                                                                                                                                                                                                                                                                                                                                                                        
