ACSSF ID040000000001     16                                                                                                                                                       04000US16                               Idaho                                                                                                                                                                                                                                                                                                                                                                                                                                                                                                                                                                                                                                                                                                                                                                                                                                                                                                                                                                                                                                                                                     
ACSSF ID040010000002     16                                                                                                                                U                      04001US16                               Idaho -- Urban                                                                                                                                                                                                                                                                                                                                                                                                                                                                                                                                                                                                                                                                                                                                                                                                                                                                                                                                                                                                                                                                            
ACSSF ID040430000003     16                                                                                                                                R                      04043US16                               Idaho -- Rural                                                                                                                                                                                                                                                                                                                                                                                                                                                                                                                                                                                                                                                                                                                                                                                                                                                                                                                                                                                                                                                                            
ACSSF ID040A00000004     16                                                                                                                                                       040A0US16                               Idaho -- In metropolitan or micropolitan statistical area                                                                                                                                                                                                                                                                                                                                                                                                                                                                                                                                                                                                                                                                                                                                                                                                                                                                                                                                                                                                                                 
ACSSF ID040C00000005     16                                                              1                                                                                        040C0US16                               Idaho -- In metropolitan statistical area                                                                                                                                                                                                                                                                                                                                                                                                                                                                                                                                                                                                                                                                                                                                                                                                                                                                                                                                                                                                                                                 
ACSSF ID040C10000006     16                                                              1                                                                  Y                     040C1US16                               Idaho -- In metropolitan statistical area -- in principal city                                                                                                                                                                                                                                                                                                                                                                                                                                                                                                                                                                                                                                                                                                                                                                                                                                                                                                                                                                                                                            
ACSSF ID040C20000007     16                                                              1                                                                                        040C2US16                               Idaho -- In metropolitan statistical area -- not in principal city                                                                                                                                                                                                                                                                                                                                                                                                                                                                                                                                                                                                                                                                                                                                                                                                                                                                                                                                                                                                                        
ACSSF ID040E00000008     16                                                              2                                                                                        040E0US16                               Idaho -- In micropolitan statistical area                                                                                                                                                                                                                                                                                                                                                                                                                                                                                                                                                                                                                                                                                                                                                                                                                                                                                                                                                                                                                                                 
ACSSF ID040E10000009     16                                                              2                                                                  Y                     040E1US16                               Idaho -- In micropolitan statistical area -- in principal city                                                                                                                                                                                                                                                                                                                                                                                                                                                                                                                                                                                                                                                                                                                                                                                                                                                                                                                                                                                                                            
ACSSF ID040E20000010     16                                                              2                                                                                        040E2US16                               Idaho -- In micropolitan statistical area -- not in principal city                                                                                                                                                                                                                                                                                                                                                                                                                                                                                                                                                                                                                                                                                                                                                                                                                                                                                                                                                                                                                        
ACSSF ID040G00000011     16                                                              9                                                                                        040G0US16                               Idaho -- Not in metropolitan or micropolitan statistical area                                                                                                                                                                                                                                                                                                                                                                                                                                                                                                                                                                                                                                                                                                                                                                                                                                                                                                                                                                                                                             
ACSSF ID040H00000012     16                                                                                                                                                       040H0US16                               Idaho -- Not in metropolitan statistical area                                                                                                                                                                                                                                                                                                                                                                                                                                                                                                                                                                                                                                                                                                                                                                                                                                                                                                                                                                                                                                             
ACSSF ID050000000013     16001                                                                                                                                                    05000US16001                            Ada County, Idaho                                                                                                                                                                                                                                                                                                                                                                                                                                                                                                                                                                                                                                                                                                                                                                                                                                                                                                                                                                                                                                                                         
ACSSF ID050000000014     16003                                                                                                                                                    05000US16003                            Adams County, Idaho                                                                                                                                                                                                                                                                                                                                                                                                                                                                                                                                                                                                                                                                                                                                                                                                                                                                                                                                                                                                                                                                       
ACSSF ID050000000015     16005                                                                                                                                                    05000US16005                            Bannock County, Idaho                                                                                                                                                                                                                                                                                                                                                                                                                                                                                                                                                                                                                                                                                                                                                                                                                                                                                                                                                                                                                                                                     
ACSSF ID050000000016     16007                                                                                                                                                    05000US16007                            Bear Lake County, Idaho                                                                                                                                                                                                                                                                                                                                                                                                                                                                                                                                                                                                                                                                                                                                                                                                                                                                                                                                                                                                                                                                   
ACSSF ID050000000017     16009                                                                                                                                                    05000US16009                            Benewah County, Idaho                                                                                                                                                                                                                                                                                                                                                                                                                                                                                                                                                                                                                                                                                                                                                                                                                                                                                                                                                                                                                                                                     
ACSSF ID050000000018     16011                                                                                                                                                    05000US16011                            Bingham County, Idaho                                                                                                                                                                                                                                                                                                                                                                                                                                                                                                                                                                                                                                                                                                                                                                                                                                                                                                                                                                                                                                                                     
ACSSF ID050000000019     16013                                                                                                                                                    05000US16013                            Blaine County, Idaho                                                                                                                                                                                                                                                                                                                                                                                                                                                                                                                                                                                                                                                                                                                                                                                                                                                                                                                                                                                                                                                                      
ACSSF ID050000000020     16015                                                                                                                                                    05000US16015                            Boise County, Idaho                                                                                                                                                                                                                                                                                                                                                                                                                                                                                                                                                                                                                                                                                                                                                                                                                                                                                                                                                                                                                                                                       
ACSSF ID050000000021     16017                                                                                                                                                    05000US16017                            Bonner County, Idaho                                                                                                                                                                                                                                                                                                                                                                                                                                                                                                                                                                                                                                                                                                                                                                                                                                                                                                                                                                                                                                                                      
ACSSF ID050000000022     16019                                                                                                                                                    05000US16019                            Bonneville County, Idaho                                                                                                                                                                                                                                                                                                                                                                                                                                                                                                                                                                                                                                                                                                                                                                                                                                                                                                                                                                                                                                                                  
ACSSF ID050000000023     16021                                                                                                                                                    05000US16021                            Boundary County, Idaho                                                                                                                                                                                                                                                                                                                                                                                                                                                                                                                                                                                                                                                                                                                                                                                                                                                                                                                                                                                                                                                                    
ACSSF ID050000000024     16023                                                                                                                                                    05000US16023                            Butte County, Idaho                                                                                                                                                                                                                                                                                                                                                                                                                                                                                                                                                                                                                                                                                                                                                                                                                                                                                                                                                                                                                                                                       
ACSSF ID050000000025     16025                                                                                                                                                    05000US16025                            Camas County, Idaho                                                                                                                                                                                                                                                                                                                                                                                                                                                                                                                                                                                                                                                                                                                                                                                                                                                                                                                                                                                                                                                                       
ACSSF ID050000000026     16027                                                                                                                                                    05000US16027                            Canyon County, Idaho                                                                                                                                                                                                                                                                                                                                                                                                                                                                                                                                                                                                                                                                                                                                                                                                                                                                                                                                                                                                                                                                      
ACSSF ID050000000027     16029                                                                                                                                                    05000US16029                            Caribou County, Idaho                                                                                                                                                                                                                                                                                                                                                                                                                                                                                                                                                                                                                                                                                                                                                                                                                                                                                                                                                                                                                                                                     
ACSSF ID050000000028     16031                                                                                                                                                    05000US16031                            Cassia County, Idaho                                                                                                                                                                                                                                                                                                                                                                                                                                                                                                                                                                                                                                                                                                                                                                                                                                                                                                                                                                                                                                                                      
ACSSF ID050000000029     16033                                                                                                                                                    05000US16033                            Clark County, Idaho                                                                                                                                                                                                                                                                                                                                                                                                                                                                                                                                                                                                                                                                                                                                                                                                                                                                                                                                                                                                                                                                       
ACSSF ID050000000030     16035                                                                                                                                                    05000US16035                            Clearwater County, Idaho                                                                                                                                                                                                                                                                                                                                                                                                                                                                                                                                                                                                                                                                                                                                                                                                                                                                                                                                                                                                                                                                  
ACSSF ID050000000031     16037                                                                                                                                                    05000US16037                            Custer County, Idaho                                                                                                                                                                                                                                                                                                                                                                                                                                                                                                                                                                                                                                                                                                                                                                                                                                                                                                                                                                                                                                                                      
ACSSF ID050000000032     16039                                                                                                                                                    05000US16039                            Elmore County, Idaho                                                                                                                                                                                                                                                                                                                                                                                                                                                                                                                                                                                                                                                                                                                                                                                                                                                                                                                                                                                                                                                                      
ACSSF ID050000000033     16041                                                                                                                                                    05000US16041                            Franklin County, Idaho                                                                                                                                                                                                                                                                                                                                                                                                                                                                                                                                                                                                                                                                                                                                                                                                                                                                                                                                                                                                                                                                    
ACSSF ID050000000034     16043                                                                                                                                                    05000US16043                            Fremont County, Idaho                                                                                                                                                                                                                                                                                                                                                                                                                                                                                                                                                                                                                                                                                                                                                                                                                                                                                                                                                                                                                                                                     
ACSSF ID050000000035     16045                                                                                                                                                    05000US16045                            Gem County, Idaho                                                                                                                                                                                                                                                                                                                                                                                                                                                                                                                                                                                                                                                                                                                                                                                                                                                                                                                                                                                                                                                                         
ACSSF ID050000000036     16047                                                                                                                                                    05000US16047                            Gooding County, Idaho                                                                                                                                                                                                                                                                                                                                                                                                                                                                                                                                                                                                                                                                                                                                                                                                                                                                                                                                                                                                                                                                     
ACSSF ID050000000037     16049                                                                                                                                                    05000US16049                            Idaho County, Idaho                                                                                                                                                                                                                                                                                                                                                                                                                                                                                                                                                                                                                                                                                                                                                                                                                                                                                                                                                                                                                                                                       
ACSSF ID050000000038     16051                                                                                                                                                    05000US16051                            Jefferson County, Idaho                                                                                                                                                                                                                                                                                                                                                                                                                                                                                                                                                                                                                                                                                                                                                                                                                                                                                                                                                                                                                                                                   
ACSSF ID050000000039     16053                                                                                                                                                    05000US16053                            Jerome County, Idaho                                                                                                                                                                                                                                                                                                                                                                                                                                                                                                                                                                                                                                                                                                                                                                                                                                                                                                                                                                                                                                                                      
ACSSF ID050000000040     16055                                                                                                                                                    05000US16055                            Kootenai County, Idaho                                                                                                                                                                                                                                                                                                                                                                                                                                                                                                                                                                                                                                                                                                                                                                                                                                                                                                                                                                                                                                                                    
ACSSF ID050000000041     16057                                                                                                                                                    05000US16057                            Latah County, Idaho                                                                                                                                                                                                                                                                                                                                                                                                                                                                                                                                                                                                                                                                                                                                                                                                                                                                                                                                                                                                                                                                       
ACSSF ID050000000042     16059                                                                                                                                                    05000US16059                            Lemhi County, Idaho                                                                                                                                                                                                                                                                                                                                                                                                                                                                                                                                                                                                                                                                                                                                                                                                                                                                                                                                                                                                                                                                       
ACSSF ID050000000043     16061                                                                                                                                                    05000US16061                            Lewis County, Idaho                                                                                                                                                                                                                                                                                                                                                                                                                                                                                                                                                                                                                                                                                                                                                                                                                                                                                                                                                                                                                                                                       
ACSSF ID050000000044     16063                                                                                                                                                    05000US16063                            Lincoln County, Idaho                                                                                                                                                                                                                                                                                                                                                                                                                                                                                                                                                                                                                                                                                                                                                                                                                                                                                                                                                                                                                                                                     
ACSSF ID050000000045     16065                                                                                                                                                    05000US16065                            Madison County, Idaho                                                                                                                                                                                                                                                                                                                                                                                                                                                                                                                                                                                                                                                                                                                                                                                                                                                                                                                                                                                                                                                                     
ACSSF ID050000000046     16067                                                                                                                                                    05000US16067                            Minidoka County, Idaho                                                                                                                                                                                                                                                                                                                                                                                                                                                                                                                                                                                                                                                                                                                                                                                                                                                                                                                                                                                                                                                                    
ACSSF ID050000000047     16069                                                                                                                                                    05000US16069                            Nez Perce County, Idaho                                                                                                                                                                                                                                                                                                                                                                                                                                                                                                                                                                                                                                                                                                                                                                                                                                                                                                                                                                                                                                                                   
ACSSF ID050000000048     16071                                                                                                                                                    05000US16071                            Oneida County, Idaho                                                                                                                                                                                                                                                                                                                                                                                                                                                                                                                                                                                                                                                                                                                                                                                                                                                                                                                                                                                                                                                                      
ACSSF ID050000000049     16073                                                                                                                                                    05000US16073                            Owyhee County, Idaho                                                                                                                                                                                                                                                                                                                                                                                                                                                                                                                                                                                                                                                                                                                                                                                                                                                                                                                                                                                                                                                                      
ACSSF ID050000000050     16075                                                                                                                                                    05000US16075                            Payette County, Idaho                                                                                                                                                                                                                                                                                                                                                                                                                                                                                                                                                                                                                                                                                                                                                                                                                                                                                                                                                                                                                                                                     
ACSSF ID050000000051     16077                                                                                                                                                    05000US16077                            Power County, Idaho                                                                                                                                                                                                                                                                                                                                                                                                                                                                                                                                                                                                                                                                                                                                                                                                                                                                                                                                                                                                                                                                       
ACSSF ID050000000052     16079                                                                                                                                                    05000US16079                            Shoshone County, Idaho                                                                                                                                                                                                                                                                                                                                                                                                                                                                                                                                                                                                                                                                                                                                                                                                                                                                                                                                                                                                                                                                    
ACSSF ID050000000053     16081                                                                                                                                                    05000US16081                            Teton County, Idaho                                                                                                                                                                                                                                                                                                                                                                                                                                                                                                                                                                                                                                                                                                                                                                                                                                                                                                                                                                                                                                                                       
ACSSF ID050000000054     16083                                                                                                                                                    05000US16083                            Twin Falls County, Idaho                                                                                                                                                                                                                                                                                                                                                                                                                                                                                                                                                                                                                                                                                                                                                                                                                                                                                                                                                                                                                                                                  
ACSSF ID050000000055     16085                                                                                                                                                    05000US16085                            Valley County, Idaho                                                                                                                                                                                                                                                                                                                                                                                                                                                                                                                                                                                                                                                                                                                                                                                                                                                                                                                                                                                                                                                                      
ACSSF ID050000000056     16087                                                                                                                                                    05000US16087                            Washington County, Idaho                                                                                                                                                                                                                                                                                                                                                                                                                                                                                                                                                                                                                                                                                                                                                                                                                                                                                                                                                                                                                                                                  
ACSSF ID060000000057     1600190345                                                                                                                                               06000US1600190345                       Boise City CCD, Ada County, Idaho                                                                                                                                                                                                                                                                                                                                                                                                                                                                                                                                                                                                                                                                                                                                                                                                                                                                                                                                                                                                                                                         
ACSSF ID060000000058     1600190368                                                                                                                                               06000US1600190368                       Boise Hills CCD, Ada County, Idaho                                                                                                                                                                                                                                                                                                                                                                                                                                                                                                                                                                                                                                                                                                                                                                                                                                                                                                                                                                                                                                                        
ACSSF ID060000000059     1600190805                                                                                                                                               06000US1600190805                       Eagle CCD, Ada County, Idaho                                                                                                                                                                                                                                                                                                                                                                                                                                                                                                                                                                                                                                                                                                                                                                                                                                                                                                                                                                                                                                                              
ACSSF ID060000000060     1600191863                                                                                                                                               06000US1600191863                       Kuna CCD, Ada County, Idaho                                                                                                                                                                                                                                                                                                                                                                                                                                                                                                                                                                                                                                                                                                                                                                                                                                                                                                                                                                                                                                                               
ACSSF ID060000000061     1600192668                                                                                                                                               06000US1600192668                       Orchard CCD, Ada County, Idaho                                                                                                                                                                                                                                                                                                                                                                                                                                                                                                                                                                                                                                                                                                                                                                                                                                                                                                                                                                                                                                                            
ACSSF ID060000000062     1600390667                                                                                                                                               06000US1600390667                       Council CCD, Adams County, Idaho                                                                                                                                                                                                                                                                                                                                                                                                                                                                                                                                                                                                                                                                                                                                                                                                                                                                                                                                                                                                                                                          
ACSSF ID060000000063     1600392484                                                                                                                                               06000US1600392484                       New Meadows CCD, Adams County, Idaho                                                                                                                                                                                                                                                                                                                                                                                                                                                                                                                                                                                                                                                                                                                                                                                                                                                                                                                                                                                                                                                      
ACSSF ID060000000064     1600591058                                                                                                                                               06000US1600591058                       Fort Hall CCD, Bannock County, Idaho                                                                                                                                                                                                                                                                                                                                                                                                                                                                                                                                                                                                                                                                                                                                                                                                                                                                                                                                                                                                                                                      
ACSSF ID060000000065     1600591702                                                                                                                                               06000US1600591702                       Inkom CCD, Bannock County, Idaho                                                                                                                                                                                                                                                                                                                                                                                                                                                                                                                                                                                                                                                                                                                                                                                                                                                                                                                                                                                                                                                          
ACSSF ID060000000066     1600592852                                                                                                                                               06000US1600592852                       Pocatello CCD, Bannock County, Idaho                                                                                                                                                                                                                                                                                                                                                                                                                                                                                                                                                                                                                                                                                                                                                                                                                                                                                                                                                                                                                                                      
ACSSF ID060000000067     1600593289                                                                                                                                               06000US1600593289                       South Bannock CCD, Bannock County, Idaho                                                                                                                                                                                                                                                                                                                                                                                                                                                                                                                                                                                                                                                                                                                                                                                                                                                                                                                                                                                                                                                  
ACSSF ID060000000068     1600791219                                                                                                                                               06000US1600791219                       Georgetown CCD, Bear Lake County, Idaho                                                                                                                                                                                                                                                                                                                                                                                                                                                                                                                                                                                                                                                                                                                                                                                                                                                                                                                                                                                                                                                   
ACSSF ID060000000069     1600792208                                                                                                                                               06000US1600792208                       Montpelier CCD, Bear Lake County, Idaho                                                                                                                                                                                                                                                                                                                                                                                                                                                                                                                                                                                                                                                                                                                                                                                                                                                                                                                                                                                                                                                   
ACSSF ID060000000070     1600792691                                                                                                                                               06000US1600792691                       Paris CCD, Bear Lake County, Idaho                                                                                                                                                                                                                                                                                                                                                                                                                                                                                                                                                                                                                                                                                                                                                                                                                                                                                                                                                                                                                                                        
ACSSF ID060000000071     1600992829                                                                                                                                               06000US1600992829                       Plummer CCD, Benewah County, Idaho                                                                                                                                                                                                                                                                                                                                                                                                                                                                                                                                                                                                                                                                                                                                                                                                                                                                                                                                                                                                                                                        
ACSSF ID060000000072     1600993151                                                                                                                                               06000US1600993151                       St. Maries CCD, Benewah County, Idaho                                                                                                                                                                                                                                                                                                                                                                                                                                                                                                                                                                                                                                                                                                                                                                                                                                                                                                                                                                                                                                                     
ACSSF ID060000000073     1600993450                                                                                                                                               06000US1600993450                       Tensed CCD, Benewah County, Idaho                                                                                                                                                                                                                                                                                                                                                                                                                                                                                                                                                                                                                                                                                                                                                                                                                                                                                                                                                                                                                                                         
ACSSF ID060000000074     1601190023                                                                                                                                               06000US1601190023                       Aberdeen CCD, Bingham County, Idaho                                                                                                                                                                                                                                                                                                                                                                                                                                                                                                                                                                                                                                                                                                                                                                                                                                                                                                                                                                                                                                                       
ACSSF ID060000000075     1601190069                                                                                                                                               06000US1601190069                       Alridge CCD, Bingham County, Idaho                                                                                                                                                                                                                                                                                                                                                                                                                                                                                                                                                                                                                                                                                                                                                                                                                                                                                                                                                                                                                                                        
ACSSF ID060000000076     1601190207                                                                                                                                               06000US1601190207                       Atomic City CCD, Bingham County, Idaho                                                                                                                                                                                                                                                                                                                                                                                                                                                                                                                                                                                                                                                                                                                                                                                                                                                                                                                                                                                                                                                    
ACSSF ID060000000077     1601190276                                                                                                                                               06000US1601190276                       Blackfoot CCD, Bingham County, Idaho                                                                                                                                                                                                                                                                                                                                                                                                                                                                                                                                                                                                                                                                                                                                                                                                                                                                                                                                                                                                                                                      
ACSSF ID060000000078     1601191012                                                                                                                                               06000US1601191012                       Firth CCD, Bingham County, Idaho                                                                                                                                                                                                                                                                                                                                                                                                                                                                                                                                                                                                                                                                                                                                                                                                                                                                                                                                                                                                                                                          
