ACSSF WY040000000001     56                                                                                                                                                       04000US56                               Wyoming                                                                                                                                                                                                                                                                                                                                                                                                                                                                                                                                                                                                                                                                                                                                                                                                                                                                                                                                                                                                                                                                                   
ACSSF WY040010000002     56                                                                                                                                U                      04001US56                               Wyoming -- Urban                                                                                                                                                                                                                                                                                                                                                                                                                                                                                                                                                                                                                                                                                                                                                                                                                                                                                                                                                                                                                                                                          
ACSSF WY040430000003     56                                                                                                                                R                      04043US56                               Wyoming -- Rural                                                                                                                                                                                                                                                                                                                                                                                                                                                                                                                                                                                                                                                                                                                                                                                                                                                                                                                                                                                                                                                                          
ACSSF WY040A00000004     56                                                                                                                                                       040A0US56                               Wyoming -- In metropolitan or micropolitan statistical area                                                                                                                                                                                                                                                                                                                                                                                                                                                                                                                                                                                                                                                                                                                                                                                                                                                                                                                                                                                                                               
ACSSF WY040C00000005     56                                                              1                                                                                        040C0US56                               Wyoming -- In metropolitan statistical area                                                                                                                                                                                                                                                                                                                                                                                                                                                                                                                                                                                                                                                                                                                                                                                                                                                                                                                                                                                                                                               
ACSSF WY040C10000006     56                                                              1                                                                  Y                     040C1US56                               Wyoming -- In metropolitan statistical area -- in principal city                                                                                                                                                                                                                                                                                                                                                                                                                                                                                                                                                                                                                                                                                                                                                                                                                                                                                                                                                                                                                          
ACSSF WY040C20000007     56                                                              1                                                                                        040C2US56                               Wyoming -- In metropolitan statistical area -- not in principal city                                                                                                                                                                                                                                                                                                                                                                                                                                                                                                                                                                                                                                                                                                                                                                                                                                                                                                                                                                                                                      
ACSSF WY040E00000008     56                                                              2                                                                                        040E0US56                               Wyoming -- In micropolitan statistical area                                                                                                                                                                                                                                                                                                                                                                                                                                                                                                                                                                                                                                                                                                                                                                                                                                                                                                                                                                                                                                               
ACSSF WY040E10000009     56                                                              2                                                                  Y                     040E1US56                               Wyoming -- In micropolitan statistical area -- in principal city                                                                                                                                                                                                                                                                                                                                                                                                                                                                                                                                                                                                                                                                                                                                                                                                                                                                                                                                                                                                                          
ACSSF WY040E20000010     56                                                              2                                                                                        040E2US56                               Wyoming -- In micropolitan statistical area -- not in principal city                                                                                                                                                                                                                                                                                                                                                                                                                                                                                                                                                                                                                                                                                                                                                                                                                                                                                                                                                                                                                      
ACSSF WY040G00000011     56                                                              9                                                                                        040G0US56                               Wyoming -- Not in metropolitan or micropolitan statistical area                                                                                                                                                                                                                                                                                                                                                                                                                                                                                                                                                                                                                                                                                                                                                                                                                                                                                                                                                                                                                           
ACSSF WY040H00000012     56                                                                                                                                                       040H0US56                               Wyoming -- Not in metropolitan statistical area                                                                                                                                                                                                                                                                                                                                                                                                                                                                                                                                                                                                                                                                                                                                                                                                                                                                                                                                                                                                                                           
ACSSF WY050000000013     56001                                                                                                                                                    05000US56001                            Albany County, Wyoming                                                                                                                                                                                                                                                                                                                                                                                                                                                                                                                                                                                                                                                                                                                                                                                                                                                                                                                                                                                                                                                                    
ACSSF WY050000000014     56003                                                                                                                                                    05000US56003                            Big Horn County, Wyoming                                                                                                                                                                                                                                                                                                                                                                                                                                                                                                                                                                                                                                                                                                                                                                                                                                                                                                                                                                                                                                                                  
ACSSF WY050000000015     56005                                                                                                                                                    05000US56005                            Campbell County, Wyoming                                                                                                                                                                                                                                                                                                                                                                                                                                                                                                                                                                                                                                                                                                                                                                                                                                                                                                                                                                                                                                                                  
ACSSF WY050000000016     56007                                                                                                                                                    05000US56007                            Carbon County, Wyoming                                                                                                                                                                                                                                                                                                                                                                                                                                                                                                                                                                                                                                                                                                                                                                                                                                                                                                                                                                                                                                                                    
ACSSF WY050000000017     56009                                                                                                                                                    05000US56009                            Converse County, Wyoming                                                                                                                                                                                                                                                                                                                                                                                                                                                                                                                                                                                                                                                                                                                                                                                                                                                                                                                                                                                                                                                                  
ACSSF WY050000000018     56011                                                                                                                                                    05000US56011                            Crook County, Wyoming                                                                                                                                                                                                                                                                                                                                                                                                                                                                                                                                                                                                                                                                                                                                                                                                                                                                                                                                                                                                                                                                     
ACSSF WY050000000019     56013                                                                                                                                                    05000US56013                            Fremont County, Wyoming                                                                                                                                                                                                                                                                                                                                                                                                                                                                                                                                                                                                                                                                                                                                                                                                                                                                                                                                                                                                                                                                   
ACSSF WY050000000020     56015                                                                                                                                                    05000US56015                            Goshen County, Wyoming                                                                                                                                                                                                                                                                                                                                                                                                                                                                                                                                                                                                                                                                                                                                                                                                                                                                                                                                                                                                                                                                    
ACSSF WY050000000021     56017                                                                                                                                                    05000US56017                            Hot Springs County, Wyoming                                                                                                                                                                                                                                                                                                                                                                                                                                                                                                                                                                                                                                                                                                                                                                                                                                                                                                                                                                                                                                                               
ACSSF WY050000000022     56019                                                                                                                                                    05000US56019                            Johnson County, Wyoming                                                                                                                                                                                                                                                                                                                                                                                                                                                                                                                                                                                                                                                                                                                                                                                                                                                                                                                                                                                                                                                                   
ACSSF WY050000000023     56021                                                                                                                                                    05000US56021                            Laramie County, Wyoming                                                                                                                                                                                                                                                                                                                                                                                                                                                                                                                                                                                                                                                                                                                                                                                                                                                                                                                                                                                                                                                                   
ACSSF WY050000000024     56023                                                                                                                                                    05000US56023                            Lincoln County, Wyoming                                                                                                                                                                                                                                                                                                                                                                                                                                                                                                                                                                                                                                                                                                                                                                                                                                                                                                                                                                                                                                                                   
ACSSF WY050000000025     56025                                                                                                                                                    05000US56025                            Natrona County, Wyoming                                                                                                                                                                                                                                                                                                                                                                                                                                                                                                                                                                                                                                                                                                                                                                                                                                                                                                                                                                                                                                                                   
ACSSF WY050000000026     56027                                                                                                                                                    05000US56027                            Niobrara County, Wyoming                                                                                                                                                                                                                                                                                                                                                                                                                                                                                                                                                                                                                                                                                                                                                                                                                                                                                                                                                                                                                                                                  
ACSSF WY050000000027     56029                                                                                                                                                    05000US56029                            Park County, Wyoming                                                                                                                                                                                                                                                                                                                                                                                                                                                                                                                                                                                                                                                                                                                                                                                                                                                                                                                                                                                                                                                                      
ACSSF WY050000000028     56031                                                                                                                                                    05000US56031                            Platte County, Wyoming                                                                                                                                                                                                                                                                                                                                                                                                                                                                                                                                                                                                                                                                                                                                                                                                                                                                                                                                                                                                                                                                    
ACSSF WY050000000029     56033                                                                                                                                                    05000US56033                            Sheridan County, Wyoming                                                                                                                                                                                                                                                                                                                                                                                                                                                                                                                                                                                                                                                                                                                                                                                                                                                                                                                                                                                                                                                                  
ACSSF WY050000000030     56035                                                                                                                                                    05000US56035                            Sublette County, Wyoming                                                                                                                                                                                                                                                                                                                                                                                                                                                                                                                                                                                                                                                                                                                                                                                                                                                                                                                                                                                                                                                                  
ACSSF WY050000000031     56037                                                                                                                                                    05000US56037                            Sweetwater County, Wyoming                                                                                                                                                                                                                                                                                                                                                                                                                                                                                                                                                                                                                                                                                                                                                                                                                                                                                                                                                                                                                                                                
ACSSF WY050000000032     56039                                                                                                                                                    05000US56039                            Teton County, Wyoming                                                                                                                                                                                                                                                                                                                                                                                                                                                                                                                                                                                                                                                                                                                                                                                                                                                                                                                                                                                                                                                                     
ACSSF WY050000000033     56041                                                                                                                                                    05000US56041                            Uinta County, Wyoming                                                                                                                                                                                                                                                                                                                                                                                                                                                                                                                                                                                                                                                                                                                                                                                                                                                                                                                                                                                                                                                                     
ACSSF WY050000000034     56043                                                                                                                                                    05000US56043                            Washakie County, Wyoming                                                                                                                                                                                                                                                                                                                                                                                                                                                                                                                                                                                                                                                                                                                                                                                                                                                                                                                                                                                                                                                                  
ACSSF WY050000000035     56045                                                                                                                                                    05000US56045                            Weston County, Wyoming                                                                                                                                                                                                                                                                                                                                                                                                                                                                                                                                                                                                                                                                                                                                                                                                                                                                                                                                                                                                                                                                    
ACSSF WY060000000036     5600191100                                                                                                                                               06000US5600191100                       East Albany CCD, Albany County, Wyoming                                                                                                                                                                                                                                                                                                                                                                                                                                                                                                                                                                                                                                                                                                                                                                                                                                                                                                                                                                                                                                                   
ACSSF WY060000000037     5600192090                                                                                                                                               06000US5600192090                       Laramie CCD, Albany County, Wyoming                                                                                                                                                                                                                                                                                                                                                                                                                                                                                                                                                                                                                                                                                                                                                                                                                                                                                                                                                                                                                                                       
ACSSF WY060000000038     5600192695                                                                                                                                               06000US5600192695                       Rock River CCD, Albany County, Wyoming                                                                                                                                                                                                                                                                                                                                                                                                                                                                                                                                                                                                                                                                                                                                                                                                                                                                                                                                                                                                                                                    
ACSSF WY060000000039     5600193135                                                                                                                                               06000US5600193135                       South Albany CCD, Albany County, Wyoming                                                                                                                                                                                                                                                                                                                                                                                                                                                                                                                                                                                                                                                                                                                                                                                                                                                                                                                                                                                                                                                  
ACSSF WY060000000040     5600390688                                                                                                                                               06000US5600390688                       Central Big Horn CCD, Big Horn County, Wyoming                                                                                                                                                                                                                                                                                                                                                                                                                                                                                                                                                                                                                                                                                                                                                                                                                                                                                                                                                                                                                                            
ACSSF WY060000000041     5600392393                                                                                                                                               06000US5600392393                       North Big Horn CCD, Big Horn County, Wyoming                                                                                                                                                                                                                                                                                                                                                                                                                                                                                                                                                                                                                                                                                                                                                                                                                                                                                                                                                                                                                                              
ACSSF WY060000000042     5600393142                                                                                                                                               06000US5600393142                       South Big Horn CCD, Big Horn County, Wyoming                                                                                                                                                                                                                                                                                                                                                                                                                                                                                                                                                                                                                                                                                                                                                                                                                                                                                                                                                                                                                                              
ACSSF WY060000000043     5600591210                                                                                                                                               06000US5600591210                       Gillette North CCD, Campbell County, Wyoming                                                                                                                                                                                                                                                                                                                                                                                                                                                                                                                                                                                                                                                                                                                                                                                                                                                                                                                                                                                                                                              
ACSSF WY060000000044     5600591265                                                                                                                                               06000US5600591265                       Gillette South CCD, Campbell County, Wyoming                                                                                                                                                                                                                                                                                                                                                                                                                                                                                                                                                                                                                                                                                                                                                                                                                                                                                                                                                                                                                                              
ACSSF WY060000000045     5600791650                                                                                                                                               06000US5600791650                       Hanna CCD, Carbon County, Wyoming                                                                                                                                                                                                                                                                                                                                                                                                                                                                                                                                                                                                                                                                                                                                                                                                                                                                                                                                                                                                                                                         
ACSSF WY060000000046     5600792640                                                                                                                                               06000US5600792640                       Rawlins CCD, Carbon County, Wyoming                                                                                                                                                                                                                                                                                                                                                                                                                                                                                                                                                                                                                                                                                                                                                                                                                                                                                                                                                                                                                                                       
ACSSF WY060000000047     5600792860                                                                                                                                               06000US5600792860                       Saratoga CCD, Carbon County, Wyoming                                                                                                                                                                                                                                                                                                                                                                                                                                                                                                                                                                                                                                                                                                                                                                                                                                                                                                                                                                                                                                                      
ACSSF WY060000000048     5600990990                                                                                                                                               06000US5600990990                       Douglas CCD, Converse County, Wyoming                                                                                                                                                                                                                                                                                                                                                                                                                                                                                                                                                                                                                                                                                                                                                                                                                                                                                                                                                                                                                                                     
ACSSF WY060000000049     5600991375                                                                                                                                               06000US5600991375                       Glenrock CCD, Converse County, Wyoming                                                                                                                                                                                                                                                                                                                                                                                                                                                                                                                                                                                                                                                                                                                                                                                                                                                                                                                                                                                                                                                    
ACSSF WY060000000050     5601191760                                                                                                                                               06000US5601191760                       Hulett CCD, Crook County, Wyoming                                                                                                                                                                                                                                                                                                                                                                                                                                                                                                                                                                                                                                                                                                                                                                                                                                                                                                                                                                                                                                                         
ACSSF WY060000000051     5601192200                                                                                                                                               06000US5601192200                       Moorcroft CCD, Crook County, Wyoming                                                                                                                                                                                                                                                                                                                                                                                                                                                                                                                                                                                                                                                                                                                                                                                                                                                                                                                                                                                                                                                      
ACSSF WY060000000052     5601193190                                                                                                                                               06000US5601193190                       Sundance CCD, Crook County, Wyoming                                                                                                                                                                                                                                                                                                                                                                                                                                                                                                                                                                                                                                                                                                                                                                                                                                                                                                                                                                                                                                                       
ACSSF WY060000000053     5601391045                                                                                                                                               06000US5601391045                       Dubois CCD, Fremont County, Wyoming                                                                                                                                                                                                                                                                                                                                                                                                                                                                                                                                                                                                                                                                                                                                                                                                                                                                                                                                                                                                                                                       
ACSSF WY060000000054     5601391842                                                                                                                                               06000US5601391842                       Jeffrey City CCD, Fremont County, Wyoming                                                                                                                                                                                                                                                                                                                                                                                                                                                                                                                                                                                                                                                                                                                                                                                                                                                                                                                                                                                                                                                 
ACSSF WY060000000055     5601392035                                                                                                                                               06000US5601392035                       Lander CCD, Fremont County, Wyoming                                                                                                                                                                                                                                                                                                                                                                                                                                                                                                                                                                                                                                                                                                                                                                                                                                                                                                                                                                                                                                                       
ACSSF WY060000000056     5601393080                                                                                                                                               06000US5601393080                       Shoshoni CCD, Fremont County, Wyoming                                                                                                                                                                                                                                                                                                                                                                                                                                                                                                                                                                                                                                                                                                                                                                                                                                                                                                                                                                                                                                                     
ACSSF WY060000000057     5601393742                                                                                                                                               06000US5601393742                       Wind River Reservation CCD, Fremont County, Wyoming                                                                                                                                                                                                                                                                                                                                                                                                                                                                                                                                                                                                                                                                                                                                                                                                                                                                                                                                                                                                                                       
ACSSF WY060000000058     5601591430                                                                                                                                               06000US5601591430                       Goshen Hole CCD, Goshen County, Wyoming                                                                                                                                                                                                                                                                                                                                                                                                                                                                                                                                                                                                                                                                                                                                                                                                                                                                                                                                                                                                                                                   
ACSSF WY060000000059     5601592585                                                                                                                                               06000US5601592585                       Rawhide Creek CCD, Goshen County, Wyoming                                                                                                                                                                                                                                                                                                                                                                                                                                                                                                                                                                                                                                                                                                                                                                                                                                                                                                                                                                                                                                                 
ACSSF WY060000000060     5601593465                                                                                                                                               06000US5601593465                       Torrington CCD, Goshen County, Wyoming                                                                                                                                                                                                                                                                                                                                                                                                                                                                                                                                                                                                                                                                                                                                                                                                                                                                                                                                                                                                                                                    
ACSSF WY060000000061     5601793355                                                                                                                                               06000US5601793355                       Thermopolis East CCD, Hot Springs County, Wyoming                                                                                                                                                                                                                                                                                                                                                                                                                                                                                                                                                                                                                                                                                                                                                                                                                                                                                                                                                                                                                                         
ACSSF WY060000000062     5601793410                                                                                                                                               06000US5601793410                       Thermopolis West CCD, Hot Springs County, Wyoming                                                                                                                                                                                                                                                                                                                                                                                                                                                                                                                                                                                                                                                                                                                                                                                                                                                                                                                                                                                                                                         
ACSSF WY060000000063     5601793744                                                                                                                                               06000US5601793744                       Wind River Reservation CCD, Hot Springs County, Wyoming                                                                                                                                                                                                                                                                                                                                                                                                                                                                                                                                                                                                                                                                                                                                                                                                                                                                                                                                                                                                                                   
ACSSF WY060000000064     5601990495                                                                                                                                               06000US5601990495                       Buffalo CCD, Johnson County, Wyoming                                                                                                                                                                                                                                                                                                                                                                                                                                                                                                                                                                                                                                                                                                                                                                                                                                                                                                                                                                                                                                                      
ACSSF WY060000000065     5601991870                                                                                                                                               06000US5601991870                       Kaycee CCD, Johnson County, Wyoming                                                                                                                                                                                                                                                                                                                                                                                                                                                                                                                                                                                                                                                                                                                                                                                                                                                                                                                                                                                                                                                       
ACSSF WY060000000066     5602190715                                                                                                                                               06000US5602190715                       Cheyenne CCD, Laramie County, Wyoming                                                                                                                                                                                                                                                                                                                                                                                                                                                                                                                                                                                                                                                                                                                                                                                                                                                                                                                                                                                                                                                     
ACSSF WY060000000067     5602190770                                                                                                                                               06000US5602190770                       Cheyenne East CCD, Laramie County, Wyoming                                                                                                                                                                                                                                                                                                                                                                                                                                                                                                                                                                                                                                                                                                                                                                                                                                                                                                                                                                                                                                                
ACSSF WY060000000068     5602190825                                                                                                                                               06000US5602190825                       Cheyenne West CCD, Laramie County, Wyoming                                                                                                                                                                                                                                                                                                                                                                                                                                                                                                                                                                                                                                                                                                                                                                                                                                                                                                                                                                                                                                                
ACSSF WY060000000069     5602192420                                                                                                                                               06000US5602192420                       Pine Bluffs CCD, Laramie County, Wyoming                                                                                                                                                                                                                                                                                                                                                                                                                                                                                                                                                                                                                                                                                                                                                                                                                                                                                                                                                                                                                                                  
ACSSF WY060000000070     5602390055                                                                                                                                               06000US5602390055                       Afton CCD, Lincoln County, Wyoming                                                                                                                                                                                                                                                                                                                                                                                                                                                                                                                                                                                                                                                                                                                                                                                                                                                                                                                                                                                                                                                        
ACSSF WY060000000071     5602391925                                                                                                                                               06000US5602391925                       Kemmerer East CCD, Lincoln County, Wyoming                                                                                                                                                                                                                                                                                                                                                                                                                                                                                                                                                                                                                                                                                                                                                                                                                                                                                                                                                                                                                                                
ACSSF WY060000000072     5602391980                                                                                                                                               06000US5602391980                       Kemmerer West CCD, Lincoln County, Wyoming                                                                                                                                                                                                                                                                                                                                                                                                                                                                                                                                                                                                                                                                                                                                                                                                                                                                                                                                                                                                                                                
ACSSF WY060000000073     5602590550                                                                                                                                               06000US5602590550                       Casper CCD, Natrona County, Wyoming                                                                                                                                                                                                                                                                                                                                                                                                                                                                                                                                                                                                                                                                                                                                                                                                                                                                                                                                                                                                                                                       
ACSSF WY060000000074     5602590605                                                                                                                                               06000US5602590605                       Casper North CCD, Natrona County, Wyoming                                                                                                                                                                                                                                                                                                                                                                                                                                                                                                                                                                                                                                                                                                                                                                                                                                                                                                                                                                                                                                                 
ACSSF WY060000000075     5602590660                                                                                                                                               06000US5602590660                       Casper South CCD, Natrona County, Wyoming                                                                                                                                                                                                                                                                                                                                                                                                                                                                                                                                                                                                                                                                                                                                                                                                                                                                                                                                                                                                                                                 
ACSSF WY060000000076     5602591705                                                                                                                                               06000US5602591705                       Hells Half Acre CCD, Natrona County, Wyoming                                                                                                                                                                                                                                                                                                                                                                                                                                                                                                                                                                                                                                                                                                                                                                                                                                                                                                                                                                                                                                              
ACSSF WY060000000077     5602791128                                                                                                                                               06000US5602791128                       East Niobrara CCD, Niobrara County, Wyoming                                                                                                                                                                                                                                                                                                                                                                                                                                                                                                                                                                                                                                                                                                                                                                                                                                                                                                                                                                                                                                               
ACSSF WY060000000078     5602793603                                                                                                                                               06000US5602793603                       West Niobrara CCD, Niobrara County, Wyoming                                                                                                                                                                                                                                                                                                                                                                                                                                                                                                                                                                                                                                                                                                                                                                                                                                                                                                                                                                                                                                               
