ACSSF RI040000000001     44                                                                                                                                                       04000US44                               Rhode Island                                                                                                                                                                                                                                                                                                                                                                                                                                                                                                                                                                                                                                                                                                                                                                                                                                                                                                                                                                                                                                                                              
ACSSF RI040010000002     44                                                                                                                                U                      04001US44                               Rhode Island -- Urban                                                                                                                                                                                                                                                                                                                                                                                                                                                                                                                                                                                                                                                                                                                                                                                                                                                                                                                                                                                                                                                                     
ACSSF RI040430000003     44                                                                                                                                R                      04043US44                               Rhode Island -- Rural                                                                                                                                                                                                                                                                                                                                                                                                                                                                                                                                                                                                                                                                                                                                                                                                                                                                                                                                                                                                                                                                     
ACSSF RI040A00000004     44                                                                                                                                                       040A0US44                               Rhode Island -- In metropolitan or micropolitan statistical area                                                                                                                                                                                                                                                                                                                                                                                                                                                                                                                                                                                                                                                                                                                                                                                                                                                                                                                                                                                                                          
ACSSF RI040C00000005     44                                                              1                                                                                        040C0US44                               Rhode Island -- In metropolitan statistical area                                                                                                                                                                                                                                                                                                                                                                                                                                                                                                                                                                                                                                                                                                                                                                                                                                                                                                                                                                                                                                          
ACSSF RI040C10000006     44                                                              1                                                                  Y                     040C1US44                               Rhode Island -- In metropolitan statistical area -- in principal city                                                                                                                                                                                                                                                                                                                                                                                                                                                                                                                                                                                                                                                                                                                                                                                                                                                                                                                                                                                                                     
ACSSF RI040C20000007     44                                                              1                                                                                        040C2US44                               Rhode Island -- In metropolitan statistical area -- not in principal city                                                                                                                                                                                                                                                                                                                                                                                                                                                                                                                                                                                                                                                                                                                                                                                                                                                                                                                                                                                                                 
ACSSF RI050000000008     44001                                                                                                                                                    05000US44001                            Bristol County, Rhode Island                                                                                                                                                                                                                                                                                                                                                                                                                                                                                                                                                                                                                                                                                                                                                                                                                                                                                                                                                                                                                                                              
ACSSF RI050000000009     44003                                                                                                                                                    05000US44003                            Kent County, Rhode Island                                                                                                                                                                                                                                                                                                                                                                                                                                                                                                                                                                                                                                                                                                                                                                                                                                                                                                                                                                                                                                                                 
ACSSF RI050000000010     44005                                                                                                                                                    05000US44005                            Newport County, Rhode Island                                                                                                                                                                                                                                                                                                                                                                                                                                                                                                                                                                                                                                                                                                                                                                                                                                                                                                                                                                                                                                                              
ACSSF RI050000000011     44007                                                                                                                                                    05000US44007                            Providence County, Rhode Island                                                                                                                                                                                                                                                                                                                                                                                                                                                                                                                                                                                                                                                                                                                                                                                                                                                                                                                                                                                                                                                           
ACSSF RI050000000012     44009                                                                                                                                                    05000US44009                            Washington County, Rhode Island                                                                                                                                                                                                                                                                                                                                                                                                                                                                                                                                                                                                                                                                                                                                                                                                                                                                                                                                                                                                                                                           
ACSSF RI060000000013     4400105140                                                                                                                                               06000US4400105140                       Barrington town, Bristol County, Rhode Island                                                                                                                                                                                                                                                                                                                                                                                                                                                                                                                                                                                                                                                                                                                                                                                                                                                                                                                                                                                                                                             
ACSSF RI060000000014     4400109280                                                                                                                                               06000US4400109280                       Bristol town, Bristol County, Rhode Island                                                                                                                                                                                                                                                                                                                                                                                                                                                                                                                                                                                                                                                                                                                                                                                                                                                                                                                                                                                                                                                
ACSSF RI060000000015     4400173760                                                                                                                                               06000US4400173760                       Warren town, Bristol County, Rhode Island                                                                                                                                                                                                                                                                                                                                                                                                                                                                                                                                                                                                                                                                                                                                                                                                                                                                                                                                                                                                                                                 
ACSSF RI060000000016     4400318640                                                                                                                                               06000US4400318640                       Coventry town, Kent County, Rhode Island                                                                                                                                                                                                                                                                                                                                                                                                                                                                                                                                                                                                                                                                                                                                                                                                                                                                                                                                                                                                                                                  
ACSSF RI060000000017     4400322240                                                                                                                                               06000US4400322240                       East Greenwich town, Kent County, Rhode Island                                                                                                                                                                                                                                                                                                                                                                                                                                                                                                                                                                                                                                                                                                                                                                                                                                                                                                                                                                                                                                            
ACSSF RI060000000018     4400374300                                                                                                                                               06000US4400374300                       Warwick city, Kent County, Rhode Island                                                                                                                                                                                                                                                                                                                                                                                                                                                                                                                                                                                                                                                                                                                                                                                                                                                                                                                                                                                                                                                   
ACSSF RI060000000019     4400377720                                                                                                                                               06000US4400377720                       West Greenwich town, Kent County, Rhode Island                                                                                                                                                                                                                                                                                                                                                                                                                                                                                                                                                                                                                                                                                                                                                                                                                                                                                                                                                                                                                                            
ACSSF RI060000000020     4400378440                                                                                                                                               06000US4400378440                       West Warwick town, Kent County, Rhode Island                                                                                                                                                                                                                                                                                                                                                                                                                                                                                                                                                                                                                                                                                                                                                                                                                                                                                                                                                                                                                                              
ACSSF RI060000000021     4400500000                                                                                                                                               06000US4400500000                       County subdivisions not defined, Newport County, Rhode Island                                                                                                                                                                                                                                                                                                                                                                                                                                                                                                                                                                                                                                                                                                                                                                                                                                                                                                                                                                                                                             
ACSSF RI060000000022     4400536820                                                                                                                                               06000US4400536820                       Jamestown town, Newport County, Rhode Island                                                                                                                                                                                                                                                                                                                                                                                                                                                                                                                                                                                                                                                                                                                                                                                                                                                                                                                                                                                                                                              
ACSSF RI060000000023     4400542400                                                                                                                                               06000US4400542400                       Little Compton town, Newport County, Rhode Island                                                                                                                                                                                                                                                                                                                                                                                                                                                                                                                                                                                                                                                                                                                                                                                                                                                                                                                                                                                                                                         
ACSSF RI060000000024     4400545460                                                                                                                                               06000US4400545460                       Middletown town, Newport County, Rhode Island                                                                                                                                                                                                                                                                                                                                                                                                                                                                                                                                                                                                                                                                                                                                                                                                                                                                                                                                                                                                                                             
ACSSF RI060000000025     4400549960                                                                                                                                               06000US4400549960                       Newport city, Newport County, Rhode Island                                                                                                                                                                                                                                                                                                                                                                                                                                                                                                                                                                                                                                                                                                                                                                                                                                                                                                                                                                                                                                                
ACSSF RI060000000026     4400557880                                                                                                                                               06000US4400557880                       Portsmouth town, Newport County, Rhode Island                                                                                                                                                                                                                                                                                                                                                                                                                                                                                                                                                                                                                                                                                                                                                                                                                                                                                                                                                                                                                                             
ACSSF RI060000000027     4400570880                                                                                                                                               06000US4400570880                       Tiverton town, Newport County, Rhode Island                                                                                                                                                                                                                                                                                                                                                                                                                                                                                                                                                                                                                                                                                                                                                                                                                                                                                                                                                                                                                                               
ACSSF RI060000000028     4400711800                                                                                                                                               06000US4400711800                       Burrillville town, Providence County, Rhode Island                                                                                                                                                                                                                                                                                                                                                                                                                                                                                                                                                                                                                                                                                                                                                                                                                                                                                                                                                                                                                                        
ACSSF RI060000000029     4400714140                                                                                                                                               06000US4400714140                       Central Falls city, Providence County, Rhode Island                                                                                                                                                                                                                                                                                                                                                                                                                                                                                                                                                                                                                                                                                                                                                                                                                                                                                                                                                                                                                                       
ACSSF RI060000000030     4400719180                                                                                                                                               06000US4400719180                       Cranston city, Providence County, Rhode Island                                                                                                                                                                                                                                                                                                                                                                                                                                                                                                                                                                                                                                                                                                                                                                                                                                                                                                                                                                                                                                            
ACSSF RI060000000031     4400720080                                                                                                                                               06000US4400720080                       Cumberland town, Providence County, Rhode Island                                                                                                                                                                                                                                                                                                                                                                                                                                                                                                                                                                                                                                                                                                                                                                                                                                                                                                                                                                                                                                          
ACSSF RI060000000032     4400722960                                                                                                                                               06000US4400722960                       East Providence city, Providence County, Rhode Island                                                                                                                                                                                                                                                                                                                                                                                                                                                                                                                                                                                                                                                                                                                                                                                                                                                                                                                                                                                                                                     
ACSSF RI060000000033     4400727460                                                                                                                                               06000US4400727460                       Foster town, Providence County, Rhode Island                                                                                                                                                                                                                                                                                                                                                                                                                                                                                                                                                                                                                                                                                                                                                                                                                                                                                                                                                                                                                                              
ACSSF RI060000000034     4400730340                                                                                                                                               06000US4400730340                       Glocester town, Providence County, Rhode Island                                                                                                                                                                                                                                                                                                                                                                                                                                                                                                                                                                                                                                                                                                                                                                                                                                                                                                                                                                                                                                           
ACSSF RI060000000035     4400737720                                                                                                                                               06000US4400737720                       Johnston town, Providence County, Rhode Island                                                                                                                                                                                                                                                                                                                                                                                                                                                                                                                                                                                                                                                                                                                                                                                                                                                                                                                                                                                                                                            
ACSSF RI060000000036     4400741500                                                                                                                                               06000US4400741500                       Lincoln town, Providence County, Rhode Island                                                                                                                                                                                                                                                                                                                                                                                                                                                                                                                                                                                                                                                                                                                                                                                                                                                                                                                                                                                                                                             
ACSSF RI060000000037     4400751760                                                                                                                                               06000US4400751760                       North Providence town, Providence County, Rhode Island                                                                                                                                                                                                                                                                                                                                                                                                                                                                                                                                                                                                                                                                                                                                                                                                                                                                                                                                                                                                                                    
ACSSF RI060000000038     4400752480                                                                                                                                               06000US4400752480                       North Smithfield town, Providence County, Rhode Island                                                                                                                                                                                                                                                                                                                                                                                                                                                                                                                                                                                                                                                                                                                                                                                                                                                                                                                                                                                                                                    
ACSSF RI060000000039     4400754640                                                                                                                                               06000US4400754640                       Pawtucket city, Providence County, Rhode Island                                                                                                                                                                                                                                                                                                                                                                                                                                                                                                                                                                                                                                                                                                                                                                                                                                                                                                                                                                                                                                           
ACSSF RI060000000040     4400759000                                                                                                                                               06000US4400759000                       Providence city, Providence County, Rhode Island                                                                                                                                                                                                                                                                                                                                                                                                                                                                                                                                                                                                                                                                                                                                                                                                                                                                                                                                                                                                                                          
ACSSF RI060000000041     4400764220                                                                                                                                               06000US4400764220                       Scituate town, Providence County, Rhode Island                                                                                                                                                                                                                                                                                                                                                                                                                                                                                                                                                                                                                                                                                                                                                                                                                                                                                                                                                                                                                                            
ACSSF RI060000000042     4400766200                                                                                                                                               06000US4400766200                       Smithfield town, Providence County, Rhode Island                                                                                                                                                                                                                                                                                                                                                                                                                                                                                                                                                                                                                                                                                                                                                                                                                                                                                                                                                                                                                                          
ACSSF RI060000000043     4400780780                                                                                                                                               06000US4400780780                       Woonsocket city, Providence County, Rhode Island                                                                                                                                                                                                                                                                                                                                                                                                                                                                                                                                                                                                                                                                                                                                                                                                                                                                                                                                                                                                                                          
ACSSF RI060000000044     4400914500                                                                                                                                               06000US4400914500                       Charlestown town, Washington County, Rhode Island                                                                                                                                                                                                                                                                                                                                                                                                                                                                                                                                                                                                                                                                                                                                                                                                                                                                                                                                                                                                                                         
ACSSF RI060000000045     4400925300                                                                                                                                               06000US4400925300                       Exeter town, Washington County, Rhode Island                                                                                                                                                                                                                                                                                                                                                                                                                                                                                                                                                                                                                                                                                                                                                                                                                                                                                                                                                                                                                                              
ACSSF RI060000000046     4400935380                                                                                                                                               06000US4400935380                       Hopkinton town, Washington County, Rhode Island                                                                                                                                                                                                                                                                                                                                                                                                                                                                                                                                                                                                                                                                                                                                                                                                                                                                                                                                                                                                                                           
ACSSF RI060000000047     4400948340                                                                                                                                               06000US4400948340                       Narragansett town, Washington County, Rhode Island                                                                                                                                                                                                                                                                                                                                                                                                                                                                                                                                                                                                                                                                                                                                                                                                                                                                                                                                                                                                                                        
ACSSF RI060000000048     4400950500                                                                                                                                               06000US4400950500                       New Shoreham town, Washington County, Rhode Island                                                                                                                                                                                                                                                                                                                                                                                                                                                                                                                                                                                                                                                                                                                                                                                                                                                                                                                                                                                                                                        
ACSSF RI060000000049     4400951580                                                                                                                                               06000US4400951580                       North Kingstown town, Washington County, Rhode Island                                                                                                                                                                                                                                                                                                                                                                                                                                                                                                                                                                                                                                                                                                                                                                                                                                                                                                                                                                                                                                     
ACSSF RI060000000050     4400961160                                                                                                                                               06000US4400961160                       Richmond town, Washington County, Rhode Island                                                                                                                                                                                                                                                                                                                                                                                                                                                                                                                                                                                                                                                                                                                                                                                                                                                                                                                                                                                                                                            
ACSSF RI060000000051     4400967460                                                                                                                                               06000US4400967460                       South Kingstown town, Washington County, Rhode Island                                                                                                                                                                                                                                                                                                                                                                                                                                                                                                                                                                                                                                                                                                                                                                                                                                                                                                                                                                                                                                     
ACSSF RI060000000052     4400977000                                                                                                                                               06000US4400977000                       Westerly town, Washington County, Rhode Island                                                                                                                                                                                                                                                                                                                                                                                                                                                                                                                                                                                                                                                                                                                                                                                                                                                                                                                                                                                                                                            
ACSSF RI070000000053     440010514099999                                                                                                                                          07000US440010514099999                  Barrington town, Barrington town, Bristol County, Rhode Island                                                                                                                                                                                                                                                                                                                                                                                                                                                                                                                                                                                                                                                                                                                                                                                                                                                                                                                                                                                                                            
ACSSF RI070000000054     440010928099999                                                                                                                                          07000US440010928099999                  Bristol town, Bristol town, Bristol County, Rhode Island                                                                                                                                                                                                                                                                                                                                                                                                                                                                                                                                                                                                                                                                                                                                                                                                                                                                                                                                                                                                                                  
ACSSF RI070000000055     440017376099999                                                                                                                                          07000US440017376099999                  Warren town, Warren town, Bristol County, Rhode Island                                                                                                                                                                                                                                                                                                                                                                                                                                                                                                                                                                                                                                                                                                                                                                                                                                                                                                                                                                                                                                    
ACSSF RI070000000056     440031864031240                                                                                                                                          07000US440031864031240                  Greene CDP, Coventry town, Kent County, Rhode Island                                                                                                                                                                                                                                                                                                                                                                                                                                                                                                                                                                                                                                                                                                                                                                                                                                                                                                                                                                                                                                      
ACSSF RI070000000057     440031864099999                                                                                                                                          07000US440031864099999                  Remainder of Coventry town, Coventry town, Kent County, Rhode Island                                                                                                                                                                                                                                                                                                                                                                                                                                                                                                                                                                                                                                                                                                                                                                                                                                                                                                                                                                                                                      
ACSSF RI070000000058     440032224099999                                                                                                                                          07000US440032224099999                  East Greenwich town, East Greenwich town, Kent County, Rhode Island                                                                                                                                                                                                                                                                                                                                                                                                                                                                                                                                                                                                                                                                                                                                                                                                                                                                                                                                                                                                                       
ACSSF RI070000000059     440037430074300                                                                                                                                          07000US440037430074300                  Warwick city, Warwick city, Kent County, Rhode Island                                                                                                                                                                                                                                                                                                                                                                                                                                                                                                                                                                                                                                                                                                                                                                                                                                                                                                                                                                                                                                     
ACSSF RI070000000060     440037772099999                                                                                                                                          07000US440037772099999                  West Greenwich town, West Greenwich town, Kent County, Rhode Island                                                                                                                                                                                                                                                                                                                                                                                                                                                                                                                                                                                                                                                                                                                                                                                                                                                                                                                                                                                                                       
ACSSF RI070000000061     440037844099999                                                                                                                                          07000US440037844099999                  West Warwick town, West Warwick town, Kent County, Rhode Island                                                                                                                                                                                                                                                                                                                                                                                                                                                                                                                                                                                                                                                                                                                                                                                                                                                                                                                                                                                                                           
ACSSF RI070000000062     440050000099999                                                                                                                                          07000US440050000099999                  County subdivisions not defined, County subdivisions not defined, Newport County, Rhode Island                                                                                                                                                                                                                                                                                                                                                                                                                                                                                                                                                                                                                                                                                                                                                                                                                                                                                                                                                                                            
ACSSF RI070000000063     440053682099999                                                                                                                                          07000US440053682099999                  Jamestown town, Jamestown town, Newport County, Rhode Island                                                                                                                                                                                                                                                                                                                                                                                                                                                                                                                                                                                                                                                                                                                                                                                                                                                                                                                                                                                                                              
ACSSF RI070000000064     440054240099999                                                                                                                                          07000US440054240099999                  Little Compton town, Little Compton town, Newport County, Rhode Island                                                                                                                                                                                                                                                                                                                                                                                                                                                                                                                                                                                                                                                                                                                                                                                                                                                                                                                                                                                                                    
ACSSF RI070000000065     440054546045010                                                                                                                                          07000US440054546045010                  Melville CDP (part), Middletown town, Newport County, Rhode Island                                                                                                                                                                                                                                                                                                                                                                                                                                                                                                                                                                                                                                                                                                                                                                                                                                                                                                                                                                                                                        
ACSSF RI070000000066     440054546050140                                                                                                                                          07000US440054546050140                  Newport East CDP, Middletown town, Newport County, Rhode Island                                                                                                                                                                                                                                                                                                                                                                                                                                                                                                                                                                                                                                                                                                                                                                                                                                                                                                                                                                                                                           
ACSSF RI070000000067     440054546099999                                                                                                                                          07000US440054546099999                  Remainder of Middletown town, Middletown town, Newport County, Rhode Island                                                                                                                                                                                                                                                                                                                                                                                                                                                                                                                                                                                                                                                                                                                                                                                                                                                                                                                                                                                                               
ACSSF RI070000000068     440054996049960                                                                                                                                          07000US440054996049960                  Newport city, Newport city, Newport County, Rhode Island                                                                                                                                                                                                                                                                                                                                                                                                                                                                                                                                                                                                                                                                                                                                                                                                                                                                                                                                                                                                                                  
ACSSF RI070000000069     440055788045010                                                                                                                                          07000US440055788045010                  Melville CDP (part), Portsmouth town, Newport County, Rhode Island                                                                                                                                                                                                                                                                                                                                                                                                                                                                                                                                                                                                                                                                                                                                                                                                                                                                                                                                                                                                                        
ACSSF RI070000000070     440055788099999                                                                                                                                          07000US440055788099999                  Remainder of Portsmouth town, Portsmouth town, Newport County, Rhode Island                                                                                                                                                                                                                                                                                                                                                                                                                                                                                                                                                                                                                                                                                                                                                                                                                                                                                                                                                                                                               
ACSSF RI070000000071     440057088070700                                                                                                                                          07000US440057088070700                  Tiverton CDP, Tiverton town, Newport County, Rhode Island                                                                                                                                                                                                                                                                                                                                                                                                                                                                                                                                                                                                                                                                                                                                                                                                                                                                                                                                                                                                                                 
ACSSF RI070000000072     440057088099999                                                                                                                                          07000US440057088099999                  Remainder of Tiverton town, Tiverton town, Newport County, Rhode Island                                                                                                                                                                                                                                                                                                                                                                                                                                                                                                                                                                                                                                                                                                                                                                                                                                                                                                                                                                                                                   
ACSSF RI070000000073     440071180033400                                                                                                                                          07000US440071180033400                  Harrisville CDP, Burrillville town, Providence County, Rhode Island                                                                                                                                                                                                                                                                                                                                                                                                                                                                                                                                                                                                                                                                                                                                                                                                                                                                                                                                                                                                                       
ACSSF RI070000000074     440071180054460                                                                                                                                          07000US440071180054460                  Pascoag CDP, Burrillville town, Providence County, Rhode Island                                                                                                                                                                                                                                                                                                                                                                                                                                                                                                                                                                                                                                                                                                                                                                                                                                                                                                                                                                                                                           
ACSSF RI070000000075     440071180099999                                                                                                                                          07000US440071180099999                  Remainder of Burrillville town, Burrillville town, Providence County, Rhode Island                                                                                                                                                                                                                                                                                                                                                                                                                                                                                                                                                                                                                                                                                                                                                                                                                                                                                                                                                                                                        
ACSSF RI070000000076     440071414014140                                                                                                                                          07000US440071414014140                  Central Falls city, Central Falls city, Providence County, Rhode Island                                                                                                                                                                                                                                                                                                                                                                                                                                                                                                                                                                                                                                                                                                                                                                                                                                                                                                                                                                                                                   
ACSSF RI070000000077     440071918019180                                                                                                                                          07000US440071918019180                  Cranston city, Cranston city, Providence County, Rhode Island                                                                                                                                                                                                                                                                                                                                                                                                                                                                                                                                                                                                                                                                                                                                                                                                                                                                                                                                                                                                                             
ACSSF RI070000000078     440072008020260                                                                                                                                          07000US440072008020260                  Cumberland Hill CDP, Cumberland town, Providence County, Rhode Island                                                                                                                                                                                                                                                                                                                                                                                                                                                                                                                                                                                                                                                                                                                                                                                                                                                                                                                                                                                                                     
