ACSSF VT040000000001     50                                                                                                                                                       04000US50                               Vermont                                                                                                                                                                                                                                                                                                                                                                                                                                                                                                                                                                                                                                                                                                                                                                                                                                                                                                                                                                                                                                                                                   
ACSSF VT040010000002     50                                                                                                                                U                      04001US50                               Vermont -- Urban                                                                                                                                                                                                                                                                                                                                                                                                                                                                                                                                                                                                                                                                                                                                                                                                                                                                                                                                                                                                                                                                          
ACSSF VT040430000003     50                                                                                                                                R                      04043US50                               Vermont -- Rural                                                                                                                                                                                                                                                                                                                                                                                                                                                                                                                                                                                                                                                                                                                                                                                                                                                                                                                                                                                                                                                                          
ACSSF VT040A00000004     50                                                                                                                                                       040A0US50                               Vermont -- In metropolitan or micropolitan statistical area                                                                                                                                                                                                                                                                                                                                                                                                                                                                                                                                                                                                                                                                                                                                                                                                                                                                                                                                                                                                                               
ACSSF VT040C00000005     50                                                              1                                                                                        040C0US50                               Vermont -- In metropolitan statistical area                                                                                                                                                                                                                                                                                                                                                                                                                                                                                                                                                                                                                                                                                                                                                                                                                                                                                                                                                                                                                                               
ACSSF VT040C10000006     50                                                              1                                                                  Y                     040C1US50                               Vermont -- In metropolitan statistical area -- in principal city                                                                                                                                                                                                                                                                                                                                                                                                                                                                                                                                                                                                                                                                                                                                                                                                                                                                                                                                                                                                                          
ACSSF VT040C20000007     50                                                              1                                                                                        040C2US50                               Vermont -- In metropolitan statistical area -- not in principal city                                                                                                                                                                                                                                                                                                                                                                                                                                                                                                                                                                                                                                                                                                                                                                                                                                                                                                                                                                                                                      
ACSSF VT040E00000008     50                                                              2                                                                                        040E0US50                               Vermont -- In micropolitan statistical area                                                                                                                                                                                                                                                                                                                                                                                                                                                                                                                                                                                                                                                                                                                                                                                                                                                                                                                                                                                                                                               
ACSSF VT040E10000009     50                                                              2                                                                  Y                     040E1US50                               Vermont -- In micropolitan statistical area -- in principal city                                                                                                                                                                                                                                                                                                                                                                                                                                                                                                                                                                                                                                                                                                                                                                                                                                                                                                                                                                                                                          
ACSSF VT040E20000010     50                                                              2                                                                                        040E2US50                               Vermont -- In micropolitan statistical area -- not in principal city                                                                                                                                                                                                                                                                                                                                                                                                                                                                                                                                                                                                                                                                                                                                                                                                                                                                                                                                                                                                                      
ACSSF VT040G00000011     50                                                              9                                                                                        040G0US50                               Vermont -- Not in metropolitan or micropolitan statistical area                                                                                                                                                                                                                                                                                                                                                                                                                                                                                                                                                                                                                                                                                                                                                                                                                                                                                                                                                                                                                           
ACSSF VT040H00000012     50                                                                                                                                                       040H0US50                               Vermont -- Not in metropolitan statistical area                                                                                                                                                                                                                                                                                                                                                                                                                                                                                                                                                                                                                                                                                                                                                                                                                                                                                                                                                                                                                                           
ACSSF VT050000000013     50001                                                                                                                                                    05000US50001                            Addison County, Vermont                                                                                                                                                                                                                                                                                                                                                                                                                                                                                                                                                                                                                                                                                                                                                                                                                                                                                                                                                                                                                                                                   
ACSSF VT050000000014     50003                                                                                                                                                    05000US50003                            Bennington County, Vermont                                                                                                                                                                                                                                                                                                                                                                                                                                                                                                                                                                                                                                                                                                                                                                                                                                                                                                                                                                                                                                                                
ACSSF VT050000000015     50005                                                                                                                                                    05000US50005                            Caledonia County, Vermont                                                                                                                                                                                                                                                                                                                                                                                                                                                                                                                                                                                                                                                                                                                                                                                                                                                                                                                                                                                                                                                                 
ACSSF VT050000000016     50007                                                                                                                                                    05000US50007                            Chittenden County, Vermont                                                                                                                                                                                                                                                                                                                                                                                                                                                                                                                                                                                                                                                                                                                                                                                                                                                                                                                                                                                                                                                                
ACSSF VT050000000017     50009                                                                                                                                                    05000US50009                            Essex County, Vermont                                                                                                                                                                                                                                                                                                                                                                                                                                                                                                                                                                                                                                                                                                                                                                                                                                                                                                                                                                                                                                                                     
ACSSF VT050000000018     50011                                                                                                                                                    05000US50011                            Franklin County, Vermont                                                                                                                                                                                                                                                                                                                                                                                                                                                                                                                                                                                                                                                                                                                                                                                                                                                                                                                                                                                                                                                                  
ACSSF VT050000000019     50013                                                                                                                                                    05000US50013                            Grand Isle County, Vermont                                                                                                                                                                                                                                                                                                                                                                                                                                                                                                                                                                                                                                                                                                                                                                                                                                                                                                                                                                                                                                                                
ACSSF VT050000000020     50015                                                                                                                                                    05000US50015                            Lamoille County, Vermont                                                                                                                                                                                                                                                                                                                                                                                                                                                                                                                                                                                                                                                                                                                                                                                                                                                                                                                                                                                                                                                                  
ACSSF VT050000000021     50017                                                                                                                                                    05000US50017                            Orange County, Vermont                                                                                                                                                                                                                                                                                                                                                                                                                                                                                                                                                                                                                                                                                                                                                                                                                                                                                                                                                                                                                                                                    
ACSSF VT050000000022     50019                                                                                                                                                    05000US50019                            Orleans County, Vermont                                                                                                                                                                                                                                                                                                                                                                                                                                                                                                                                                                                                                                                                                                                                                                                                                                                                                                                                                                                                                                                                   
ACSSF VT050000000023     50021                                                                                                                                                    05000US50021                            Rutland County, Vermont                                                                                                                                                                                                                                                                                                                                                                                                                                                                                                                                                                                                                                                                                                                                                                                                                                                                                                                                                                                                                                                                   
ACSSF VT050000000024     50023                                                                                                                                                    05000US50023                            Washington County, Vermont                                                                                                                                                                                                                                                                                                                                                                                                                                                                                                                                                                                                                                                                                                                                                                                                                                                                                                                                                                                                                                                                
ACSSF VT050000000025     50025                                                                                                                                                    05000US50025                            Windham County, Vermont                                                                                                                                                                                                                                                                                                                                                                                                                                                                                                                                                                                                                                                                                                                                                                                                                                                                                                                                                                                                                                                                   
ACSSF VT050000000026     50027                                                                                                                                                    05000US50027                            Windsor County, Vermont                                                                                                                                                                                                                                                                                                                                                                                                                                                                                                                                                                                                                                                                                                                                                                                                                                                                                                                                                                                                                                                                   
ACSSF VT060000000027     5000100325                                                                                                                                               06000US5000100325                       Addison town, Addison County, Vermont                                                                                                                                                                                                                                                                                                                                                                                                                                                                                                                                                                                                                                                                                                                                                                                                                                                                                                                                                                                                                                                     
ACSSF VT060000000028     5000108575                                                                                                                                               06000US5000108575                       Bridport town, Addison County, Vermont                                                                                                                                                                                                                                                                                                                                                                                                                                                                                                                                                                                                                                                                                                                                                                                                                                                                                                                                                                                                                                                    
ACSSF VT060000000029     5000109025                                                                                                                                               06000US5000109025                       Bristol town, Addison County, Vermont                                                                                                                                                                                                                                                                                                                                                                                                                                                                                                                                                                                                                                                                                                                                                                                                                                                                                                                                                                                                                                                     
ACSSF VT060000000030     5000116000                                                                                                                                               06000US5000116000                       Cornwall town, Addison County, Vermont                                                                                                                                                                                                                                                                                                                                                                                                                                                                                                                                                                                                                                                                                                                                                                                                                                                                                                                                                                                                                                                    
ACSSF VT060000000031     5000126300                                                                                                                                               06000US5000126300                       Ferrisburgh town, Addison County, Vermont                                                                                                                                                                                                                                                                                                                                                                                                                                                                                                                                                                                                                                                                                                                                                                                                                                                                                                                                                                                                                                                 
ACSSF VT060000000032     5000128600                                                                                                                                               06000US5000128600                       Goshen town, Addison County, Vermont                                                                                                                                                                                                                                                                                                                                                                                                                                                                                                                                                                                                                                                                                                                                                                                                                                                                                                                                                                                                                                                      
ACSSF VT060000000033     5000129575                                                                                                                                               06000US5000129575                       Granville town, Addison County, Vermont                                                                                                                                                                                                                                                                                                                                                                                                                                                                                                                                                                                                                                                                                                                                                                                                                                                                                                                                                                                                                                                   
ACSSF VT060000000034     5000131525                                                                                                                                               06000US5000131525                       Hancock town, Addison County, Vermont                                                                                                                                                                                                                                                                                                                                                                                                                                                                                                                                                                                                                                                                                                                                                                                                                                                                                                                                                                                                                                                     
ACSSF VT060000000035     5000139325                                                                                                                                               06000US5000139325                       Leicester town, Addison County, Vermont                                                                                                                                                                                                                                                                                                                                                                                                                                                                                                                                                                                                                                                                                                                                                                                                                                                                                                                                                                                                                                                   
ACSSF VT060000000036     5000140075                                                                                                                                               06000US5000140075                       Lincoln town, Addison County, Vermont                                                                                                                                                                                                                                                                                                                                                                                                                                                                                                                                                                                                                                                                                                                                                                                                                                                                                                                                                                                                                                                     
ACSSF VT060000000037     5000144350                                                                                                                                               06000US5000144350                       Middlebury town, Addison County, Vermont                                                                                                                                                                                                                                                                                                                                                                                                                                                                                                                                                                                                                                                                                                                                                                                                                                                                                                                                                                                                                                                  
ACSSF VT060000000038     5000145550                                                                                                                                               06000US5000145550                       Monkton town, Addison County, Vermont                                                                                                                                                                                                                                                                                                                                                                                                                                                                                                                                                                                                                                                                                                                                                                                                                                                                                                                                                                                                                                                     
ACSSF VT060000000039     5000148700                                                                                                                                               06000US5000148700                       New Haven town, Addison County, Vermont                                                                                                                                                                                                                                                                                                                                                                                                                                                                                                                                                                                                                                                                                                                                                                                                                                                                                                                                                                                                                                                   
ACSSF VT060000000040     5000153725                                                                                                                                               06000US5000153725                       Orwell town, Addison County, Vermont                                                                                                                                                                                                                                                                                                                                                                                                                                                                                                                                                                                                                                                                                                                                                                                                                                                                                                                                                                                                                                                      
ACSSF VT060000000041     5000153950                                                                                                                                               06000US5000153950                       Panton town, Addison County, Vermont                                                                                                                                                                                                                                                                                                                                                                                                                                                                                                                                                                                                                                                                                                                                                                                                                                                                                                                                                                                                                                                      
ACSSF VT060000000042     5000159650                                                                                                                                               06000US5000159650                       Ripton town, Addison County, Vermont                                                                                                                                                                                                                                                                                                                                                                                                                                                                                                                                                                                                                                                                                                                                                                                                                                                                                                                                                                                                                                                      
ACSSF VT060000000043     5000162575                                                                                                                                               06000US5000162575                       Salisbury town, Addison County, Vermont                                                                                                                                                                                                                                                                                                                                                                                                                                                                                                                                                                                                                                                                                                                                                                                                                                                                                                                                                                                                                                                   
ACSSF VT060000000044     5000165050                                                                                                                                               06000US5000165050                       Shoreham town, Addison County, Vermont                                                                                                                                                                                                                                                                                                                                                                                                                                                                                                                                                                                                                                                                                                                                                                                                                                                                                                                                                                                                                                                    
ACSSF VT060000000045     5000170075                                                                                                                                               06000US5000170075                       Starksboro town, Addison County, Vermont                                                                                                                                                                                                                                                                                                                                                                                                                                                                                                                                                                                                                                                                                                                                                                                                                                                                                                                                                                                                                                                  
ACSSF VT060000000046     5000174650                                                                                                                                               06000US5000174650                       Vergennes city, Addison County, Vermont                                                                                                                                                                                                                                                                                                                                                                                                                                                                                                                                                                                                                                                                                                                                                                                                                                                                                                                                                                                                                                                   
ACSSF VT060000000047     5000176075                                                                                                                                               06000US5000176075                       Waltham town, Addison County, Vermont                                                                                                                                                                                                                                                                                                                                                                                                                                                                                                                                                                                                                                                                                                                                                                                                                                                                                                                                                                                                                                                     
ACSSF VT060000000048     5000183275                                                                                                                                               06000US5000183275                       Weybridge town, Addison County, Vermont                                                                                                                                                                                                                                                                                                                                                                                                                                                                                                                                                                                                                                                                                                                                                                                                                                                                                                                                                                                                                                                   
ACSSF VT060000000049     5000183800                                                                                                                                               06000US5000183800                       Whiting town, Addison County, Vermont                                                                                                                                                                                                                                                                                                                                                                                                                                                                                                                                                                                                                                                                                                                                                                                                                                                                                                                                                                                                                                                     
ACSSF VT060000000050     5000301450                                                                                                                                               06000US5000301450                       Arlington town, Bennington County, Vermont                                                                                                                                                                                                                                                                                                                                                                                                                                                                                                                                                                                                                                                                                                                                                                                                                                                                                                                                                                                                                                                
ACSSF VT060000000051     5000304825                                                                                                                                               06000US5000304825                       Bennington town, Bennington County, Vermont                                                                                                                                                                                                                                                                                                                                                                                                                                                                                                                                                                                                                                                                                                                                                                                                                                                                                                                                                                                                                                               
ACSSF VT060000000052     5000317725                                                                                                                                               06000US5000317725                       Dorset town, Bennington County, Vermont                                                                                                                                                                                                                                                                                                                                                                                                                                                                                                                                                                                                                                                                                                                                                                                                                                                                                                                                                                                                                                                   
ACSSF VT060000000053     5000327962                                                                                                                                               06000US5000327962                       Glastenbury town, Bennington County, Vermont                                                                                                                                                                                                                                                                                                                                                                                                                                                                                                                                                                                                                                                                                                                                                                                                                                                                                                                                                                                                                                              
ACSSF VT060000000054     5000339025                                                                                                                                               06000US5000339025                       Landgrove town, Bennington County, Vermont                                                                                                                                                                                                                                                                                                                                                                                                                                                                                                                                                                                                                                                                                                                                                                                                                                                                                                                                                                                                                                                
ACSSF VT060000000055     5000342850                                                                                                                                               06000US5000342850                       Manchester town, Bennington County, Vermont                                                                                                                                                                                                                                                                                                                                                                                                                                                                                                                                                                                                                                                                                                                                                                                                                                                                                                                                                                                                                                               
ACSSF VT060000000056     5000355000                                                                                                                                               06000US5000355000                       Peru town, Bennington County, Vermont                                                                                                                                                                                                                                                                                                                                                                                                                                                                                                                                                                                                                                                                                                                                                                                                                                                                                                                                                                                                                                                     
ACSSF VT060000000057     5000357025                                                                                                                                               06000US5000357025                       Pownal town, Bennington County, Vermont                                                                                                                                                                                                                                                                                                                                                                                                                                                                                                                                                                                                                                                                                                                                                                                                                                                                                                                                                                                                                                                   
ACSSF VT060000000058     5000358600                                                                                                                                               06000US5000358600                       Readsboro town, Bennington County, Vermont                                                                                                                                                                                                                                                                                                                                                                                                                                                                                                                                                                                                                                                                                                                                                                                                                                                                                                                                                                                                                                                
ACSSF VT060000000059     5000361000                                                                                                                                               06000US5000361000                       Rupert town, Bennington County, Vermont                                                                                                                                                                                                                                                                                                                                                                                                                                                                                                                                                                                                                                                                                                                                                                                                                                                                                                                                                                                                                                                   
ACSSF VT060000000060     5000362875                                                                                                                                               06000US5000362875                       Sandgate town, Bennington County, Vermont                                                                                                                                                                                                                                                                                                                                                                                                                                                                                                                                                                                                                                                                                                                                                                                                                                                                                                                                                                                                                                                 
ACSSF VT060000000061     5000363175                                                                                                                                               06000US5000363175                       Searsburg town, Bennington County, Vermont                                                                                                                                                                                                                                                                                                                                                                                                                                                                                                                                                                                                                                                                                                                                                                                                                                                                                                                                                                                                                                                
ACSSF VT060000000062     5000363550                                                                                                                                               06000US5000363550                       Shaftsbury town, Bennington County, Vermont                                                                                                                                                                                                                                                                                                                                                                                                                                                                                                                                                                                                                                                                                                                                                                                                                                                                                                                                                                                                                                               
ACSSF VT060000000063     5000369775                                                                                                                                               06000US5000369775                       Stamford town, Bennington County, Vermont                                                                                                                                                                                                                                                                                                                                                                                                                                                                                                                                                                                                                                                                                                                                                                                                                                                                                                                                                                                                                                                 
ACSSF VT060000000064     5000371425                                                                                                                                               06000US5000371425                       Sunderland town, Bennington County, Vermont                                                                                                                                                                                                                                                                                                                                                                                                                                                                                                                                                                                                                                                                                                                                                                                                                                                                                                                                                                                                                                               
ACSSF VT060000000065     5000385075                                                                                                                                               06000US5000385075                       Winhall town, Bennington County, Vermont                                                                                                                                                                                                                                                                                                                                                                                                                                                                                                                                                                                                                                                                                                                                                                                                                                                                                                                                                                                                                                                  
ACSSF VT060000000066     5000385675                                                                                                                                               06000US5000385675                       Woodford town, Bennington County, Vermont                                                                                                                                                                                                                                                                                                                                                                                                                                                                                                                                                                                                                                                                                                                                                                                                                                                                                                                                                                                                                                                 
ACSSF VT060000000067     5000502875                                                                                                                                               06000US5000502875                       Barnet town, Caledonia County, Vermont                                                                                                                                                                                                                                                                                                                                                                                                                                                                                                                                                                                                                                                                                                                                                                                                                                                                                                                                                                                                                                                    
ACSSF VT060000000068     5000510450                                                                                                                                               06000US5000510450                       Burke town, Caledonia County, Vermont                                                                                                                                                                                                                                                                                                                                                                                                                                                                                                                                                                                                                                                                                                                                                                                                                                                                                                                                                                                                                                                     
ACSSF VT060000000069     5000517125                                                                                                                                               06000US5000517125                       Danville town, Caledonia County, Vermont                                                                                                                                                                                                                                                                                                                                                                                                                                                                                                                                                                                                                                                                                                                                                                                                                                                                                                                                                                                                                                                  
ACSSF VT060000000070     5000530550                                                                                                                                               06000US5000530550                       Groton town, Caledonia County, Vermont                                                                                                                                                                                                                                                                                                                                                                                                                                                                                                                                                                                                                                                                                                                                                                                                                                                                                                                                                                                                                                                    
ACSSF VT060000000071     5000531825                                                                                                                                               06000US5000531825                       Hardwick town, Caledonia County, Vermont                                                                                                                                                                                                                                                                                                                                                                                                                                                                                                                                                                                                                                                                                                                                                                                                                                                                                                                                                                                                                                                  
ACSSF VT060000000072     5000537900                                                                                                                                               06000US5000537900                       Kirby town, Caledonia County, Vermont                                                                                                                                                                                                                                                                                                                                                                                                                                                                                                                                                                                                                                                                                                                                                                                                                                                                                                                                                                                                                                                     
ACSSF VT060000000073     5000541725                                                                                                                                               06000US5000541725                       Lyndon town, Caledonia County, Vermont                                                                                                                                                                                                                                                                                                                                                                                                                                                                                                                                                                                                                                                                                                                                                                                                                                                                                                                                                                                                                                                    
ACSSF VT060000000074     5000547725                                                                                                                                               06000US5000547725                       Newark town, Caledonia County, Vermont                                                                                                                                                                                                                                                                                                                                                                                                                                                                                                                                                                                                                                                                                                                                                                                                                                                                                                                                                                                                                                                    
ACSSF VT060000000075     5000554400                                                                                                                                               06000US5000554400                       Peacham town, Caledonia County, Vermont                                                                                                                                                                                                                                                                                                                                                                                                                                                                                                                                                                                                                                                                                                                                                                                                                                                                                                                                                                                                                                                   
ACSSF VT060000000076     5000561525                                                                                                                                               06000US5000561525                       Ryegate town, Caledonia County, Vermont                                                                                                                                                                                                                                                                                                                                                                                                                                                                                                                                                                                                                                                                                                                                                                                                                                                                                                                                                                                                                                                   
ACSSF VT060000000077     5000562200                                                                                                                                               06000US5000562200                       St. Johnsbury town, Caledonia County, Vermont                                                                                                                                                                                                                                                                                                                                                                                                                                                                                                                                                                                                                                                                                                                                                                                                                                                                                                                                                                                                                                             
ACSSF VT060000000078     5000564075                                                                                                                                               06000US5000564075                       Sheffield town, Caledonia County, Vermont                                                                                                                                                                                                                                                                                                                                                                                                                                                                                                                                                                                                                                                                                                                                                                                                                                                                                                                                                                                                                                                 
